{
	"vottind/voting.sol": {
		"voting": {
			"abi": [
				{
					"inputs": [],
					"stateMutability": "nonpayable",
					"type": "constructor"
				},
				{
					"inputs": [
						{
							"internalType": "uint256",
							"name": "",
							"type": "uint256"
						}
					],
					"name": "candidateslist",
					"outputs": [
						{
							"internalType": "address",
							"name": "",
							"type": "address"
						}
					],
					"stateMutability": "view",
					"type": "function"
				},
				{
					"inputs": [],
					"name": "contractowner",
					"outputs": [
						{
							"internalType": "address",
							"name": "",
							"type": "address"
						}
					],
					"stateMutability": "view",
					"type": "function"
				},
				{
					"inputs": [
						{
							"internalType": "address",
							"name": "_candidates",
							"type": "address"
						}
					],
					"name": "registercandidates",
					"outputs": [],
					"stateMutability": "nonpayable",
					"type": "function"
				},
				{
					"inputs": [],
					"name": "result",
					"outputs": [],
					"stateMutability": "nonpayable",
					"type": "function"
				},
				{
					"inputs": [],
					"name": "satuts",
					"outputs": [
						{
							"internalType": "enum voting.votingsatuts",
							"name": "",
							"type": "uint8"
						}
					],
					"stateMutability": "view",
					"type": "function"
				},
				{
					"inputs": [],
					"name": "setsatuts",
					"outputs": [],
					"stateMutability": "nonpayable",
					"type": "function"
				},
				{
					"inputs": [
						{
							"internalType": "address",
							"name": "_candidates",
							"type": "address"
						}
					],
					"name": "validatecandidates",
					"outputs": [
						{
							"internalType": "bool",
							"name": "",
							"type": "bool"
						}
					],
					"stateMutability": "view",
					"type": "function"
				},
				{
					"inputs": [
						{
							"internalType": "address",
							"name": "_candidates",
							"type": "address"
						}
					],
					"name": "vote",
					"outputs": [],
					"stateMutability": "nonpayable",
					"type": "function"
				},
				{
					"inputs": [
						{
							"internalType": "address",
							"name": "",
							"type": "address"
						}
					],
					"name": "voterecived",
					"outputs": [
						{
							"internalType": "uint8",
							"name": "",
							"type": "uint8"
						}
					],
					"stateMutability": "view",
					"type": "function"
				},
				{
					"inputs": [
						{
							"internalType": "address",
							"name": "_candidates",
							"type": "address"
						}
					],
					"name": "votescount",
					"outputs": [
						{
							"internalType": "uint256",
							"name": "",
							"type": "uint256"
						}
					],
					"stateMutability": "view",
					"type": "function"
				},
				{
					"inputs": [],
					"name": "winer",
					"outputs": [
						{
							"internalType": "address",
							"name": "",
							"type": "address"
						}
					],
					"stateMutability": "view",
					"type": "function"
				},
				{
					"inputs": [],
					"name": "winervote",
					"outputs": [
						{
							"internalType": "uint256",
							"name": "",
							"type": "uint256"
						}
					],
					"stateMutability": "view",
					"type": "function"
				}
			],
			"devdoc": {
				"kind": "dev",
				"methods": {},
				"version": 1
			},
			"evm": {
				"assembly": "    /* \"vottind/voting.sol\":70:1975  contract voting{... */\n  mstore(0x40, 0x80)\n    /* \"vottind/voting.sol\":356:419  constructor ()public{... */\n  callvalue\n  dup1\n  iszero\n  tag_1\n  jumpi\n  0x00\n  dup1\n  revert\ntag_1:\n  pop\n    /* \"vottind/voting.sol\":401:411  msg.sender */\n  caller\n    /* \"vottind/voting.sol\":387:400  contractowner */\n  0x00\n  dup1\n    /* \"vottind/voting.sol\":387:411  contractowner=msg.sender */\n  0x0100\n  exp\n  dup2\n  sload\n  dup2\n  0xffffffffffffffffffffffffffffffffffffffff\n  mul\n  not\n  and\n  swap1\n  dup4\n  0xffffffffffffffffffffffffffffffffffffffff\n  and\n  mul\n  or\n  swap1\n  sstore\n  pop\n    /* \"vottind/voting.sol\":70:1975  contract voting{... */\n  dataSize(sub_0)\n  dup1\n  dataOffset(sub_0)\n  0x00\n  codecopy\n  0x00\n  return\nstop\n\nsub_0: assembly {\n        /* \"vottind/voting.sol\":70:1975  contract voting{... */\n      mstore(0x40, 0x80)\n      callvalue\n      dup1\n      iszero\n      tag_1\n      jumpi\n      0x00\n      dup1\n      revert\n    tag_1:\n      pop\n      jumpi(tag_2, lt(calldatasize, 0x04))\n      shr(0xe0, calldataload(0x00))\n      dup1\n      0x6dd7d8ea\n      gt\n      tag_15\n      jumpi\n      dup1\n      0x6dd7d8ea\n      eq\n      tag_9\n      jumpi\n      dup1\n      0x759ece88\n      eq\n      tag_10\n      jumpi\n      dup1\n      0x8b2b429c\n      eq\n      tag_11\n      jumpi\n      dup1\n      0xd426b5d4\n      eq\n      tag_12\n      jumpi\n      dup1\n      0xd8d4c926\n      eq\n      tag_13\n      jumpi\n      dup1\n      0xef2eb328\n      eq\n      tag_14\n      jumpi\n      jump(tag_2)\n    tag_15:\n      dup1\n      0x071a9cd6\n      eq\n      tag_3\n      jumpi\n      dup1\n      0x0d934743\n      eq\n      tag_4\n      jumpi\n      dup1\n      0x3a6697b5\n      eq\n      tag_5\n      jumpi\n      dup1\n      0x4e68c18c\n      eq\n      tag_6\n      jumpi\n      dup1\n      0x6098c94c\n      eq\n      tag_7\n      jumpi\n      dup1\n      0x65372147\n      eq\n      tag_8\n      jumpi\n    tag_2:\n      0x00\n      dup1\n      revert\n        /* \"vottind/voting.sol\":321:347  votingsatuts public satuts */\n    tag_3:\n      tag_16\n      tag_17\n      jump\t// in\n    tag_16:\n      mload(0x40)\n      tag_18\n      swap2\n      swap1\n      tag_19\n      jump\t// in\n    tag_18:\n      mload(0x40)\n      dup1\n      swap2\n      sub\n      swap1\n      return\n        /* \"vottind/voting.sol\":1376:1617  function votescount(address _candidates) public view returns(uint) {... */\n    tag_4:\n      tag_20\n      0x04\n      dup1\n      calldatasize\n      sub\n      dup2\n      add\n      swap1\n      tag_21\n      swap2\n      swap1\n      tag_22\n      jump\t// in\n    tag_21:\n      tag_23\n      jump\t// in\n    tag_20:\n      mload(0x40)\n      tag_24\n      swap2\n      swap1\n      tag_25\n      jump\t// in\n    tag_24:\n      mload(0x40)\n      dup1\n      swap2\n      sub\n      swap1\n      return\n        /* \"vottind/voting.sol\":760:867  function registercandidates(address _candidates)onlyowner public{... */\n    tag_5:\n      tag_26\n      0x04\n      dup1\n      calldatasize\n      sub\n      dup2\n      add\n      swap1\n      tag_27\n      swap2\n      swap1\n      tag_22\n      jump\t// in\n    tag_27:\n      tag_28\n      jump\t// in\n    tag_26:\n      stop\n        /* \"vottind/voting.sol\":165:206  mapping(address=>uint8)public voterecived */\n    tag_6:\n      tag_29\n      0x04\n      dup1\n      calldatasize\n      sub\n      dup2\n      add\n      swap1\n      tag_30\n      swap2\n      swap1\n      tag_22\n      jump\t// in\n    tag_30:\n      tag_31\n      jump\t// in\n    tag_29:\n      mload(0x40)\n      tag_32\n      swap2\n      swap1\n      tag_33\n      jump\t// in\n    tag_32:\n      mload(0x40)\n      dup1\n      swap2\n      sub\n      swap1\n      return\n        /* \"vottind/voting.sol\":92:120  address public contractowner */\n    tag_7:\n      tag_34\n      tag_35\n      jump\t// in\n    tag_34:\n      mload(0x40)\n      tag_36\n      swap2\n      swap1\n      tag_37\n      jump\t// in\n    tag_36:\n      mload(0x40)\n      dup1\n      swap2\n      sub\n      swap1\n      return\n        /* \"vottind/voting.sol\":1623:1972  function result ()public{... */\n    tag_8:\n      tag_38\n      tag_39\n      jump\t// in\n    tag_38:\n      stop\n        /* \"vottind/voting.sol\":869:1113  function vote(address _candidates)public{... */\n    tag_9:\n      tag_40\n      0x04\n      dup1\n      calldatasize\n      sub\n      dup2\n      add\n      swap1\n      tag_41\n      swap2\n      swap1\n      tag_22\n      jump\t// in\n    tag_41:\n      tag_42\n      jump\t// in\n    tag_40:\n      stop\n        /* \"vottind/voting.sol\":240:261  uint public winervote */\n    tag_10:\n      tag_43\n      tag_44\n      jump\t// in\n    tag_43:\n      mload(0x40)\n      tag_45\n      swap2\n      swap1\n      tag_25\n      jump\t// in\n    tag_45:\n      mload(0x40)\n      dup1\n      swap2\n      sub\n      swap1\n      return\n        /* \"vottind/voting.sol\":526:752  function setsatuts()onlyowner public{... */\n    tag_11:\n      tag_46\n      tag_47\n      jump\t// in\n    tag_46:\n      stop\n        /* \"vottind/voting.sol\":213:233  address public winer */\n    tag_12:\n      tag_48\n      tag_49\n      jump\t// in\n    tag_48:\n      mload(0x40)\n      tag_50\n      swap2\n      swap1\n      tag_37\n      jump\t// in\n    tag_50:\n      mload(0x40)\n      dup1\n      swap2\n      sub\n      swap1\n      return\n        /* \"vottind/voting.sol\":127:158  address []public candidateslist */\n    tag_13:\n      tag_51\n      0x04\n      dup1\n      calldatasize\n      sub\n      dup2\n      add\n      swap1\n      tag_52\n      swap2\n      swap1\n      tag_53\n      jump\t// in\n    tag_52:\n      tag_54\n      jump\t// in\n    tag_51:\n      mload(0x40)\n      tag_55\n      swap2\n      swap1\n      tag_37\n      jump\t// in\n    tag_55:\n      mload(0x40)\n      dup1\n      swap2\n      sub\n      swap1\n      return\n        /* \"vottind/voting.sol\":1115:1370  function validatecandidates(address _candidates)view public returns(bool){... */\n    tag_14:\n      tag_56\n      0x04\n      dup1\n      calldatasize\n      sub\n      dup2\n      add\n      swap1\n      tag_57\n      swap2\n      swap1\n      tag_22\n      jump\t// in\n    tag_57:\n      tag_58\n      jump\t// in\n    tag_56:\n      mload(0x40)\n      tag_59\n      swap2\n      swap1\n      tag_60\n      jump\t// in\n    tag_59:\n      mload(0x40)\n      dup1\n      swap2\n      sub\n      swap1\n      return\n        /* \"vottind/voting.sol\":321:347  votingsatuts public satuts */\n    tag_17:\n      0x05\n      0x00\n      swap1\n      sload\n      swap1\n      0x0100\n      exp\n      swap1\n      div\n      0xff\n      and\n      dup2\n      jump\t// out\n        /* \"vottind/voting.sol\":1376:1617  function votescount(address _candidates) public view returns(uint) {... */\n    tag_23:\n        /* \"vottind/voting.sol\":1437:1441  uint */\n      0x00\n        /* \"vottind/voting.sol\":1464:1495  validatecandidates(_candidates) */\n      tag_62\n        /* \"vottind/voting.sol\":1483:1494  _candidates */\n      dup3\n        /* \"vottind/voting.sol\":1464:1482  validatecandidates */\n      tag_58\n        /* \"vottind/voting.sol\":1464:1495  validatecandidates(_candidates) */\n      jump\t// in\n    tag_62:\n        /* \"vottind/voting.sol\":1456:1522  require(validatecandidates(_candidates),\"not validate candidates\") */\n      tag_63\n      jumpi\n      mload(0x40)\n      0x08c379a000000000000000000000000000000000000000000000000000000000\n      dup2\n      mstore\n      0x04\n      add\n      tag_64\n      swap1\n      tag_65\n      jump\t// in\n    tag_64:\n      mload(0x40)\n      dup1\n      swap2\n      sub\n      swap1\n      revert\n    tag_63:\n        /* \"vottind/voting.sol\":1547:1566  votingsatuts.runing */\n      0x01\n        /* \"vottind/voting.sol\":1539:1566  satuts==votingsatuts.runing */\n      0x02\n      dup2\n      gt\n      iszero\n      tag_66\n      jumpi\n      tag_67\n      tag_68\n      jump\t// in\n    tag_67:\n    tag_66:\n        /* \"vottind/voting.sol\":1539:1545  satuts */\n      0x05\n      0x00\n      swap1\n      sload\n      swap1\n      0x0100\n      exp\n      swap1\n      div\n      0xff\n      and\n        /* \"vottind/voting.sol\":1539:1566  satuts==votingsatuts.runing */\n      0x02\n      dup2\n      gt\n      iszero\n      tag_69\n      jumpi\n      tag_70\n      tag_68\n      jump\t// in\n    tag_70:\n    tag_69:\n      eq\n        /* \"vottind/voting.sol\":1532:1567  assert(satuts==votingsatuts.runing) */\n      tag_71\n      jumpi\n      tag_72\n      tag_73\n      jump\t// in\n    tag_72:\n    tag_71:\n        /* \"vottind/voting.sol\":1585:1596  voterecived */\n      0x02\n        /* \"vottind/voting.sol\":1585:1609  voterecived[_candidates] */\n      0x00\n        /* \"vottind/voting.sol\":1597:1608  _candidates */\n      dup4\n        /* \"vottind/voting.sol\":1585:1609  voterecived[_candidates] */\n      0xffffffffffffffffffffffffffffffffffffffff\n      and\n      0xffffffffffffffffffffffffffffffffffffffff\n      and\n      dup2\n      mstore\n      0x20\n      add\n      swap1\n      dup2\n      mstore\n      0x20\n      add\n      0x00\n      keccak256\n      0x00\n      swap1\n      sload\n      swap1\n      0x0100\n      exp\n      swap1\n      div\n      0xff\n      and\n        /* \"vottind/voting.sol\":1578:1609  return voterecived[_candidates] */\n      0xff\n      and\n      swap1\n      pop\n        /* \"vottind/voting.sol\":1376:1617  function votescount(address _candidates) public view returns(uint) {... */\n      swap2\n      swap1\n      pop\n      jump\t// out\n        /* \"vottind/voting.sol\":760:867  function registercandidates(address _candidates)onlyowner public{... */\n    tag_28:\n        /* \"vottind/voting.sol\":470:483  contractowner */\n      0x00\n      dup1\n      sload\n      swap1\n      0x0100\n      exp\n      swap1\n      div\n      0xffffffffffffffffffffffffffffffffffffffff\n      and\n        /* \"vottind/voting.sol\":458:483  msg.sender==contractowner */\n      0xffffffffffffffffffffffffffffffffffffffff\n      and\n        /* \"vottind/voting.sol\":458:468  msg.sender */\n      caller\n        /* \"vottind/voting.sol\":458:483  msg.sender==contractowner */\n      0xffffffffffffffffffffffffffffffffffffffff\n      and\n      sub\n        /* \"vottind/voting.sol\":454:509  if (msg.sender==contractowner){... */\n      tag_75\n      jumpi\n        /* \"vottind/voting.sol\":831:845  candidateslist */\n      0x01\n        /* \"vottind/voting.sol\":851:862  _candidates */\n      dup2\n        /* \"vottind/voting.sol\":831:863  candidateslist.push(_candidates) */\n      swap1\n      dup1\n      0x01\n      dup2\n      sload\n      add\n      dup1\n      dup3\n      sstore\n      dup1\n      swap2\n      pop\n      pop\n      0x01\n      swap1\n      sub\n      swap1\n      0x00\n      mstore\n      keccak256(0x00, 0x20)\n      add\n      0x00\n      swap1\n      swap2\n      swap1\n      swap2\n      swap1\n      swap2\n      0x0100\n      exp\n      dup2\n      sload\n      dup2\n      0xffffffffffffffffffffffffffffffffffffffff\n      mul\n      not\n      and\n      swap1\n      dup4\n      0xffffffffffffffffffffffffffffffffffffffff\n      and\n      mul\n      or\n      swap1\n      sstore\n      pop\n        /* \"vottind/voting.sol\":454:509  if (msg.sender==contractowner){... */\n    tag_75:\n        /* \"vottind/voting.sol\":760:867  function registercandidates(address _candidates)onlyowner public{... */\n      pop\n      jump\t// out\n        /* \"vottind/voting.sol\":165:206  mapping(address=>uint8)public voterecived */\n    tag_31:\n      mstore(0x20, 0x02)\n      dup1\n      0x00\n      mstore\n      keccak256(0x00, 0x40)\n      0x00\n      swap2\n      pop\n      sload\n      swap1\n      0x0100\n      exp\n      swap1\n      div\n      0xff\n      and\n      dup2\n      jump\t// out\n        /* \"vottind/voting.sol\":92:120  address public contractowner */\n    tag_35:\n      0x00\n      dup1\n      sload\n      swap1\n      0x0100\n      exp\n      swap1\n      div\n      0xffffffffffffffffffffffffffffffffffffffff\n      and\n      dup2\n      jump\t// out\n        /* \"vottind/voting.sol\":1623:1972  function result ()public{... */\n    tag_39:\n        /* \"vottind/voting.sol\":1674:1696  votingsatuts.completed */\n      0x02\n        /* \"vottind/voting.sol\":1666:1696  satuts==votingsatuts.completed */\n      dup1\n      dup2\n      gt\n      iszero\n      tag_79\n      jumpi\n      tag_80\n      tag_68\n      jump\t// in\n    tag_80:\n    tag_79:\n        /* \"vottind/voting.sol\":1666:1672  satuts */\n      0x05\n      0x00\n      swap1\n      sload\n      swap1\n      0x0100\n      exp\n      swap1\n      div\n      0xff\n      and\n        /* \"vottind/voting.sol\":1666:1696  satuts==votingsatuts.completed */\n      0x02\n      dup2\n      gt\n      iszero\n      tag_81\n      jumpi\n      tag_82\n      tag_68\n      jump\t// in\n    tag_82:\n    tag_81:\n      eq\n        /* \"vottind/voting.sol\":1658:1726  require(satuts==votingsatuts.completed, \"election is not completed\") */\n      tag_83\n      jumpi\n      mload(0x40)\n      0x08c379a000000000000000000000000000000000000000000000000000000000\n      dup2\n      mstore\n      0x04\n      add\n      tag_84\n      swap1\n      tag_85\n      jump\t// in\n    tag_84:\n      mload(0x40)\n      dup1\n      swap2\n      sub\n      swap1\n      revert\n    tag_83:\n        /* \"vottind/voting.sol\":1741:1747  uint i */\n      0x00\n        /* \"vottind/voting.sol\":1737:1965  for(uint i=0;i<candidateslist.length;i++){... */\n    tag_86:\n        /* \"vottind/voting.sol\":1752:1766  candidateslist */\n      0x01\n        /* \"vottind/voting.sol\":1752:1773  candidateslist.length */\n      dup1\n      sload\n      swap1\n      pop\n        /* \"vottind/voting.sol\":1750:1751  i */\n      dup2\n        /* \"vottind/voting.sol\":1750:1773  i<candidateslist.length */\n      lt\n        /* \"vottind/voting.sol\":1737:1965  for(uint i=0;i<candidateslist.length;i++){... */\n      iszero\n      tag_87\n      jumpi\n        /* \"vottind/voting.sol\":1827:1836  winervote */\n      sload(0x04)\n        /* \"vottind/voting.sol\":1796:1807  voterecived */\n      0x02\n        /* \"vottind/voting.sol\":1796:1826  voterecived[candidateslist[i]] */\n      0x00\n        /* \"vottind/voting.sol\":1808:1822  candidateslist */\n      0x01\n        /* \"vottind/voting.sol\":1823:1824  i */\n      dup5\n        /* \"vottind/voting.sol\":1808:1825  candidateslist[i] */\n      dup2\n      sload\n      dup2\n      lt\n      tag_89\n      jumpi\n      tag_90\n      tag_91\n      jump\t// in\n    tag_90:\n    tag_89:\n      swap1\n      0x00\n      mstore\n      keccak256(0x00, 0x20)\n      add\n      0x00\n      swap1\n      sload\n      swap1\n      0x0100\n      exp\n      swap1\n      div\n      0xffffffffffffffffffffffffffffffffffffffff\n      and\n        /* \"vottind/voting.sol\":1796:1826  voterecived[candidateslist[i]] */\n      0xffffffffffffffffffffffffffffffffffffffff\n      and\n      0xffffffffffffffffffffffffffffffffffffffff\n      and\n      dup2\n      mstore\n      0x20\n      add\n      swap1\n      dup2\n      mstore\n      0x20\n      add\n      0x00\n      keccak256\n      0x00\n      swap1\n      sload\n      swap1\n      0x0100\n      exp\n      swap1\n      div\n      0xff\n      and\n        /* \"vottind/voting.sol\":1796:1836  voterecived[candidateslist[i]]>winervote */\n      0xff\n      and\n      gt\n        /* \"vottind/voting.sol\":1793:1954  if(voterecived[candidateslist[i]]>winervote){... */\n      iszero\n      tag_93\n      jumpi\n        /* \"vottind/voting.sol\":1866:1877  voterecived */\n      0x02\n        /* \"vottind/voting.sol\":1866:1896  voterecived[candidateslist[i]] */\n      0x00\n        /* \"vottind/voting.sol\":1878:1892  candidateslist */\n      0x01\n        /* \"vottind/voting.sol\":1893:1894  i */\n      dup4\n        /* \"vottind/voting.sol\":1878:1895  candidateslist[i] */\n      dup2\n      sload\n      dup2\n      lt\n      tag_94\n      jumpi\n      tag_95\n      tag_91\n      jump\t// in\n    tag_95:\n    tag_94:\n      swap1\n      0x00\n      mstore\n      keccak256(0x00, 0x20)\n      add\n      0x00\n      swap1\n      sload\n      swap1\n      0x0100\n      exp\n      swap1\n      div\n      0xffffffffffffffffffffffffffffffffffffffff\n      and\n        /* \"vottind/voting.sol\":1866:1896  voterecived[candidateslist[i]] */\n      0xffffffffffffffffffffffffffffffffffffffff\n      and\n      0xffffffffffffffffffffffffffffffffffffffff\n      and\n      dup2\n      mstore\n      0x20\n      add\n      swap1\n      dup2\n      mstore\n      0x20\n      add\n      0x00\n      keccak256\n      0x00\n      swap1\n      sload\n      swap1\n      0x0100\n      exp\n      swap1\n      div\n      0xff\n      and\n        /* \"vottind/voting.sol\":1856:1896  winervote=voterecived[candidateslist[i]] */\n      0xff\n      and\n        /* \"vottind/voting.sol\":1856:1865  winervote */\n      0x04\n        /* \"vottind/voting.sol\":1856:1896  winervote=voterecived[candidateslist[i]] */\n      dup2\n      swap1\n      sstore\n      pop\n        /* \"vottind/voting.sol\":1921:1935  candidateslist */\n      0x01\n        /* \"vottind/voting.sol\":1936:1937  i */\n      dup2\n        /* \"vottind/voting.sol\":1921:1938  candidateslist[i] */\n      dup2\n      sload\n      dup2\n      lt\n      tag_97\n      jumpi\n      tag_98\n      tag_91\n      jump\t// in\n    tag_98:\n    tag_97:\n      swap1\n      0x00\n      mstore\n      keccak256(0x00, 0x20)\n      add\n      0x00\n      swap1\n      sload\n      swap1\n      0x0100\n      exp\n      swap1\n      div\n      0xffffffffffffffffffffffffffffffffffffffff\n      and\n        /* \"vottind/voting.sol\":1915:1920  winer */\n      0x03\n      0x00\n        /* \"vottind/voting.sol\":1915:1938  winer=candidateslist[i] */\n      0x0100\n      exp\n      dup2\n      sload\n      dup2\n      0xffffffffffffffffffffffffffffffffffffffff\n      mul\n      not\n      and\n      swap1\n      dup4\n      0xffffffffffffffffffffffffffffffffffffffff\n      and\n      mul\n      or\n      swap1\n      sstore\n      pop\n        /* \"vottind/voting.sol\":1793:1954  if(voterecived[candidateslist[i]]>winervote){... */\n    tag_93:\n        /* \"vottind/voting.sol\":1774:1777  i++ */\n      dup1\n      dup1\n      tag_100\n      swap1\n      tag_101\n      jump\t// in\n    tag_100:\n      swap2\n      pop\n      pop\n        /* \"vottind/voting.sol\":1737:1965  for(uint i=0;i<candidateslist.length;i++){... */\n      jump(tag_86)\n    tag_87:\n      pop\n        /* \"vottind/voting.sol\":1623:1972  function result ()public{... */\n      jump\t// out\n        /* \"vottind/voting.sol\":869:1113  function vote(address _candidates)public{... */\n    tag_42:\n        /* \"vottind/voting.sol\":924:955  validatecandidates(_candidates) */\n      tag_103\n        /* \"vottind/voting.sol\":943:954  _candidates */\n      dup2\n        /* \"vottind/voting.sol\":924:942  validatecandidates */\n      tag_58\n        /* \"vottind/voting.sol\":924:955  validatecandidates(_candidates) */\n      jump\t// in\n    tag_103:\n        /* \"vottind/voting.sol\":916:982  require(validatecandidates(_candidates),\"not validate candidates\") */\n      tag_104\n      jumpi\n      mload(0x40)\n      0x08c379a000000000000000000000000000000000000000000000000000000000\n      dup2\n      mstore\n      0x04\n      add\n      tag_105\n      swap1\n      tag_65\n      jump\t// in\n    tag_105:\n      mload(0x40)\n      dup1\n      swap2\n      sub\n      swap1\n      revert\n    tag_104:\n        /* \"vottind/voting.sol\":1005:1024  votingsatuts.runing */\n      0x01\n        /* \"vottind/voting.sol\":997:1024  satuts==votingsatuts.runing */\n      0x02\n      dup2\n      gt\n      iszero\n      tag_106\n      jumpi\n      tag_107\n      tag_68\n      jump\t// in\n    tag_107:\n    tag_106:\n        /* \"vottind/voting.sol\":997:1003  satuts */\n      0x05\n      0x00\n      swap1\n      sload\n      swap1\n      0x0100\n      exp\n      swap1\n      div\n      0xff\n      and\n        /* \"vottind/voting.sol\":997:1024  satuts==votingsatuts.runing */\n      0x02\n      dup2\n      gt\n      iszero\n      tag_108\n      jumpi\n      tag_109\n      tag_68\n      jump\t// in\n    tag_109:\n    tag_108:\n      eq\n        /* \"vottind/voting.sol\":989:1051  require(satuts==votingsatuts.runing, \"election is not active\") */\n      tag_110\n      jumpi\n      mload(0x40)\n      0x08c379a000000000000000000000000000000000000000000000000000000000\n      dup2\n      mstore\n      0x04\n      add\n      tag_111\n      swap1\n      tag_112\n      jump\t// in\n    tag_111:\n      mload(0x40)\n      dup1\n      swap2\n      sub\n      swap1\n      revert\n    tag_110:\n        /* \"vottind/voting.sol\":1108:1109  1 */\n      0x01\n        /* \"vottind/voting.sol\":1083:1094  voterecived */\n      0x02\n        /* \"vottind/voting.sol\":1083:1107  voterecived[_candidates] */\n      0x00\n        /* \"vottind/voting.sol\":1095:1106  _candidates */\n      dup4\n        /* \"vottind/voting.sol\":1083:1107  voterecived[_candidates] */\n      0xffffffffffffffffffffffffffffffffffffffff\n      and\n      0xffffffffffffffffffffffffffffffffffffffff\n      and\n      dup2\n      mstore\n      0x20\n      add\n      swap1\n      dup2\n      mstore\n      0x20\n      add\n      0x00\n      keccak256\n      0x00\n      swap1\n      sload\n      swap1\n      0x0100\n      exp\n      swap1\n      div\n      0xff\n      and\n        /* \"vottind/voting.sol\":1083:1109  voterecived[_candidates]+1 */\n      tag_113\n      swap2\n      swap1\n      tag_114\n      jump\t// in\n    tag_113:\n        /* \"vottind/voting.sol\":1058:1069  voterecived */\n      0x02\n        /* \"vottind/voting.sol\":1058:1082  voterecived[_candidates] */\n      0x00\n        /* \"vottind/voting.sol\":1070:1081  _candidates */\n      dup4\n        /* \"vottind/voting.sol\":1058:1082  voterecived[_candidates] */\n      0xffffffffffffffffffffffffffffffffffffffff\n      and\n      0xffffffffffffffffffffffffffffffffffffffff\n      and\n      dup2\n      mstore\n      0x20\n      add\n      swap1\n      dup2\n      mstore\n      0x20\n      add\n      0x00\n      keccak256\n      0x00\n        /* \"vottind/voting.sol\":1058:1109  voterecived[_candidates]=voterecived[_candidates]+1 */\n      0x0100\n      exp\n      dup2\n      sload\n      dup2\n      0xff\n      mul\n      not\n      and\n      swap1\n      dup4\n      0xff\n      and\n      mul\n      or\n      swap1\n      sstore\n      pop\n        /* \"vottind/voting.sol\":869:1113  function vote(address _candidates)public{... */\n      pop\n      jump\t// out\n        /* \"vottind/voting.sol\":240:261  uint public winervote */\n    tag_44:\n      sload(0x04)\n      dup2\n      jump\t// out\n        /* \"vottind/voting.sol\":526:752  function setsatuts()onlyowner public{... */\n    tag_47:\n        /* \"vottind/voting.sol\":470:483  contractowner */\n      0x00\n      dup1\n      sload\n      swap1\n      0x0100\n      exp\n      swap1\n      div\n      0xffffffffffffffffffffffffffffffffffffffff\n      and\n        /* \"vottind/voting.sol\":458:483  msg.sender==contractowner */\n      0xffffffffffffffffffffffffffffffffffffffff\n      and\n        /* \"vottind/voting.sol\":458:468  msg.sender */\n      caller\n        /* \"vottind/voting.sol\":458:483  msg.sender==contractowner */\n      0xffffffffffffffffffffffffffffffffffffffff\n      and\n      sub\n        /* \"vottind/voting.sol\":454:509  if (msg.sender==contractowner){... */\n      tag_116\n      jumpi\n        /* \"vottind/voting.sol\":588:611  votingsatuts .completed */\n      0x02\n        /* \"vottind/voting.sol\":580:611  satuts!=votingsatuts .completed */\n      dup1\n      dup2\n      gt\n      iszero\n      tag_118\n      jumpi\n      tag_119\n      tag_68\n      jump\t// in\n    tag_119:\n    tag_118:\n        /* \"vottind/voting.sol\":580:586  satuts */\n      0x05\n      0x00\n      swap1\n      sload\n      swap1\n      0x0100\n      exp\n      swap1\n      div\n      0xff\n      and\n        /* \"vottind/voting.sol\":580:611  satuts!=votingsatuts .completed */\n      0x02\n      dup2\n      gt\n      iszero\n      tag_120\n      jumpi\n      tag_121\n      tag_68\n      jump\t// in\n    tag_121:\n    tag_120:\n      eq\n        /* \"vottind/voting.sol\":577:741  if(satuts!=votingsatuts .completed){... */\n      tag_122\n      jumpi\n        /* \"vottind/voting.sol\":638:657  votingsatuts.runing */\n      0x01\n        /* \"vottind/voting.sol\":631:637  satuts */\n      0x05\n      0x00\n        /* \"vottind/voting.sol\":631:657  satuts=votingsatuts.runing */\n      0x0100\n      exp\n      dup2\n      sload\n      dup2\n      0xff\n      mul\n      not\n      and\n      swap1\n      dup4\n      0x02\n      dup2\n      gt\n      iszero\n      tag_123\n      jumpi\n      tag_124\n      tag_68\n      jump\t// in\n    tag_124:\n    tag_123:\n      mul\n      or\n      swap1\n      sstore\n      pop\n        /* \"vottind/voting.sol\":577:741  if(satuts!=votingsatuts .completed){... */\n      jump(tag_125)\n    tag_122:\n        /* \"vottind/voting.sol\":703:725  votingsatuts.completed */\n      0x02\n        /* \"vottind/voting.sol\":696:702  satuts */\n      0x05\n      0x00\n        /* \"vottind/voting.sol\":696:725  satuts=votingsatuts.completed */\n      0x0100\n      exp\n      dup2\n      sload\n      dup2\n      0xff\n      mul\n      not\n      and\n      swap1\n      dup4\n      0x02\n      dup2\n      gt\n      iszero\n      tag_126\n      jumpi\n      tag_127\n      tag_68\n      jump\t// in\n    tag_127:\n    tag_126:\n      mul\n      or\n      swap1\n      sstore\n      pop\n        /* \"vottind/voting.sol\":577:741  if(satuts!=votingsatuts .completed){... */\n    tag_125:\n        /* \"vottind/voting.sol\":454:509  if (msg.sender==contractowner){... */\n    tag_116:\n        /* \"vottind/voting.sol\":526:752  function setsatuts()onlyowner public{... */\n      jump\t// out\n        /* \"vottind/voting.sol\":213:233  address public winer */\n    tag_49:\n      0x03\n      0x00\n      swap1\n      sload\n      swap1\n      0x0100\n      exp\n      swap1\n      div\n      0xffffffffffffffffffffffffffffffffffffffff\n      and\n      dup2\n      jump\t// out\n        /* \"vottind/voting.sol\":127:158  address []public candidateslist */\n    tag_54:\n      0x01\n      dup2\n      dup2\n      sload\n      dup2\n      lt\n      tag_128\n      jumpi\n      0x00\n      dup1\n      revert\n    tag_128:\n      swap1\n      0x00\n      mstore\n      keccak256(0x00, 0x20)\n      add\n      0x00\n      swap2\n      pop\n      sload\n      swap1\n      0x0100\n      exp\n      swap1\n      div\n      0xffffffffffffffffffffffffffffffffffffffff\n      and\n      dup2\n      jump\t// out\n        /* \"vottind/voting.sol\":1115:1370  function validatecandidates(address _candidates)view public returns(bool){... */\n    tag_58:\n        /* \"vottind/voting.sol\":1183:1187  bool */\n      0x00\n        /* \"vottind/voting.sol\":1199:1205  uint i */\n      dup1\n        /* \"vottind/voting.sol\":1206:1207  0 */\n      0x00\n        /* \"vottind/voting.sol\":1199:1207  uint i=0 */\n      swap1\n      pop\n        /* \"vottind/voting.sol\":1214:1228  candidateslist */\n      0x01\n        /* \"vottind/voting.sol\":1214:1235  candidateslist.length */\n      dup1\n      sload\n      swap1\n      pop\n        /* \"vottind/voting.sol\":1210:1211  i */\n      dup2\n        /* \"vottind/voting.sol\":1210:1235  i < candidateslist.length */\n      lt\n        /* \"vottind/voting.sol\":1195:1369  for(uint i=0 ; i < candidateslist.length ; i++){... */\n      iszero\n      tag_132\n      jumpi\n        /* \"vottind/voting.sol\":1275:1286  _candidates */\n      dup3\n        /* \"vottind/voting.sol\":1256:1286  candidateslist[i]==_candidates */\n      0xffffffffffffffffffffffffffffffffffffffff\n      and\n        /* \"vottind/voting.sol\":1256:1270  candidateslist */\n      0x01\n        /* \"vottind/voting.sol\":1271:1272  i */\n      dup3\n        /* \"vottind/voting.sol\":1256:1273  candidateslist[i] */\n      dup2\n      sload\n      dup2\n      lt\n      tag_134\n      jumpi\n      tag_135\n      tag_91\n      jump\t// in\n    tag_135:\n    tag_134:\n      swap1\n      0x00\n      mstore\n      keccak256(0x00, 0x20)\n      add\n      0x00\n      swap1\n      sload\n      swap1\n      0x0100\n      exp\n      swap1\n      div\n      0xffffffffffffffffffffffffffffffffffffffff\n      and\n        /* \"vottind/voting.sol\":1256:1286  candidateslist[i]==_candidates */\n      0xffffffffffffffffffffffffffffffffffffffff\n      and\n      sub\n        /* \"vottind/voting.sol\":1253:1339  if(candidateslist[i]==_candidates){... */\n      tag_137\n      jumpi\n        /* \"vottind/voting.sol\":1309:1313  true */\n      0x01\n        /* \"vottind/voting.sol\":1302:1313  return true */\n      swap2\n      pop\n      pop\n      jump(tag_130)\n        /* \"vottind/voting.sol\":1253:1339  if(candidateslist[i]==_candidates){... */\n    tag_137:\n        /* \"vottind/voting.sol\":1356:1361  false */\n      0x00\n        /* \"vottind/voting.sol\":1349:1361  return false */\n      swap2\n      pop\n      pop\n      jump(tag_130)\n        /* \"vottind/voting.sol\":1195:1369  for(uint i=0 ; i < candidateslist.length ; i++){... */\n    tag_132:\n      pop\n        /* \"vottind/voting.sol\":1115:1370  function validatecandidates(address _candidates)view public returns(bool){... */\n    tag_130:\n      swap2\n      swap1\n      pop\n      jump\t// out\n        /* \"#utility.yul\":7:187   */\n    tag_68:\n        /* \"#utility.yul\":55:132   */\n      0x4e487b7100000000000000000000000000000000000000000000000000000000\n        /* \"#utility.yul\":52:53   */\n      0x00\n        /* \"#utility.yul\":45:133   */\n      mstore\n        /* \"#utility.yul\":152:156   */\n      0x21\n        /* \"#utility.yul\":149:150   */\n      0x04\n        /* \"#utility.yul\":142:157   */\n      mstore\n        /* \"#utility.yul\":176:180   */\n      0x24\n        /* \"#utility.yul\":173:174   */\n      0x00\n        /* \"#utility.yul\":166:181   */\n      revert\n        /* \"#utility.yul\":193:313   */\n    tag_139:\n        /* \"#utility.yul\":281:282   */\n      0x03\n        /* \"#utility.yul\":274:279   */\n      dup2\n        /* \"#utility.yul\":271:283   */\n      lt\n        /* \"#utility.yul\":261:307   */\n      tag_170\n      jumpi\n        /* \"#utility.yul\":287:305   */\n      tag_171\n      tag_68\n      jump\t// in\n    tag_171:\n        /* \"#utility.yul\":261:307   */\n    tag_170:\n        /* \"#utility.yul\":193:313   */\n      pop\n      jump\t// out\n        /* \"#utility.yul\":319:460   */\n    tag_140:\n        /* \"#utility.yul\":371:378   */\n      0x00\n        /* \"#utility.yul\":400:405   */\n      dup2\n        /* \"#utility.yul\":389:405   */\n      swap1\n      pop\n        /* \"#utility.yul\":406:454   */\n      tag_173\n        /* \"#utility.yul\":448:453   */\n      dup3\n        /* \"#utility.yul\":406:454   */\n      tag_139\n      jump\t// in\n    tag_173:\n        /* \"#utility.yul\":319:460   */\n      swap2\n      swap1\n      pop\n      jump\t// out\n        /* \"#utility.yul\":466:607   */\n    tag_141:\n        /* \"#utility.yul\":529:538   */\n      0x00\n        /* \"#utility.yul\":562:601   */\n      tag_175\n        /* \"#utility.yul\":595:600   */\n      dup3\n        /* \"#utility.yul\":562:601   */\n      tag_140\n      jump\t// in\n    tag_175:\n        /* \"#utility.yul\":549:601   */\n      swap1\n      pop\n        /* \"#utility.yul\":466:607   */\n      swap2\n      swap1\n      pop\n      jump\t// out\n        /* \"#utility.yul\":613:770   */\n    tag_142:\n        /* \"#utility.yul\":713:763   */\n      tag_177\n        /* \"#utility.yul\":757:762   */\n      dup2\n        /* \"#utility.yul\":713:763   */\n      tag_141\n      jump\t// in\n    tag_177:\n        /* \"#utility.yul\":708:711   */\n      dup3\n        /* \"#utility.yul\":701:764   */\n      mstore\n        /* \"#utility.yul\":613:770   */\n      pop\n      pop\n      jump\t// out\n        /* \"#utility.yul\":776:1024   */\n    tag_19:\n        /* \"#utility.yul\":882:886   */\n      0x00\n        /* \"#utility.yul\":920:922   */\n      0x20\n        /* \"#utility.yul\":909:918   */\n      dup3\n        /* \"#utility.yul\":905:923   */\n      add\n        /* \"#utility.yul\":897:923   */\n      swap1\n      pop\n        /* \"#utility.yul\":933:1017   */\n      tag_179\n        /* \"#utility.yul\":1014:1015   */\n      0x00\n        /* \"#utility.yul\":1003:1012   */\n      dup4\n        /* \"#utility.yul\":999:1016   */\n      add\n        /* \"#utility.yul\":990:996   */\n      dup5\n        /* \"#utility.yul\":933:1017   */\n      tag_142\n      jump\t// in\n    tag_179:\n        /* \"#utility.yul\":776:1024   */\n      swap3\n      swap2\n      pop\n      pop\n      jump\t// out\n        /* \"#utility.yul\":1111:1228   */\n    tag_144:\n        /* \"#utility.yul\":1220:1221   */\n      0x00\n        /* \"#utility.yul\":1217:1218   */\n      dup1\n        /* \"#utility.yul\":1210:1222   */\n      revert\n        /* \"#utility.yul\":1357:1483   */\n    tag_146:\n        /* \"#utility.yul\":1394:1401   */\n      0x00\n        /* \"#utility.yul\":1434:1476   */\n      0xffffffffffffffffffffffffffffffffffffffff\n        /* \"#utility.yul\":1427:1432   */\n      dup3\n        /* \"#utility.yul\":1423:1477   */\n      and\n        /* \"#utility.yul\":1412:1477   */\n      swap1\n      pop\n        /* \"#utility.yul\":1357:1483   */\n      swap2\n      swap1\n      pop\n      jump\t// out\n        /* \"#utility.yul\":1489:1585   */\n    tag_147:\n        /* \"#utility.yul\":1526:1533   */\n      0x00\n        /* \"#utility.yul\":1555:1579   */\n      tag_185\n        /* \"#utility.yul\":1573:1578   */\n      dup3\n        /* \"#utility.yul\":1555:1579   */\n      tag_146\n      jump\t// in\n    tag_185:\n        /* \"#utility.yul\":1544:1579   */\n      swap1\n      pop\n        /* \"#utility.yul\":1489:1585   */\n      swap2\n      swap1\n      pop\n      jump\t// out\n        /* \"#utility.yul\":1591:1713   */\n    tag_148:\n        /* \"#utility.yul\":1664:1688   */\n      tag_187\n        /* \"#utility.yul\":1682:1687   */\n      dup2\n        /* \"#utility.yul\":1664:1688   */\n      tag_147\n      jump\t// in\n    tag_187:\n        /* \"#utility.yul\":1657:1662   */\n      dup2\n        /* \"#utility.yul\":1654:1689   */\n      eq\n        /* \"#utility.yul\":1644:1707   */\n      tag_188\n      jumpi\n        /* \"#utility.yul\":1703:1704   */\n      0x00\n        /* \"#utility.yul\":1700:1701   */\n      dup1\n        /* \"#utility.yul\":1693:1705   */\n      revert\n        /* \"#utility.yul\":1644:1707   */\n    tag_188:\n        /* \"#utility.yul\":1591:1713   */\n      pop\n      jump\t// out\n        /* \"#utility.yul\":1719:1858   */\n    tag_149:\n        /* \"#utility.yul\":1765:1770   */\n      0x00\n        /* \"#utility.yul\":1803:1809   */\n      dup2\n        /* \"#utility.yul\":1790:1810   */\n      calldataload\n        /* \"#utility.yul\":1781:1810   */\n      swap1\n      pop\n        /* \"#utility.yul\":1819:1852   */\n      tag_190\n        /* \"#utility.yul\":1846:1851   */\n      dup2\n        /* \"#utility.yul\":1819:1852   */\n      tag_148\n      jump\t// in\n    tag_190:\n        /* \"#utility.yul\":1719:1858   */\n      swap3\n      swap2\n      pop\n      pop\n      jump\t// out\n        /* \"#utility.yul\":1864:2193   */\n    tag_22:\n        /* \"#utility.yul\":1923:1929   */\n      0x00\n        /* \"#utility.yul\":1972:1974   */\n      0x20\n        /* \"#utility.yul\":1960:1969   */\n      dup3\n        /* \"#utility.yul\":1951:1958   */\n      dup5\n        /* \"#utility.yul\":1947:1970   */\n      sub\n        /* \"#utility.yul\":1943:1975   */\n      slt\n        /* \"#utility.yul\":1940:2059   */\n      iszero\n      tag_192\n      jumpi\n        /* \"#utility.yul\":1978:2057   */\n      tag_193\n      tag_144\n      jump\t// in\n    tag_193:\n        /* \"#utility.yul\":1940:2059   */\n    tag_192:\n        /* \"#utility.yul\":2098:2099   */\n      0x00\n        /* \"#utility.yul\":2123:2176   */\n      tag_194\n        /* \"#utility.yul\":2168:2175   */\n      dup5\n        /* \"#utility.yul\":2159:2165   */\n      dup3\n        /* \"#utility.yul\":2148:2157   */\n      dup6\n        /* \"#utility.yul\":2144:2166   */\n      add\n        /* \"#utility.yul\":2123:2176   */\n      tag_149\n      jump\t// in\n    tag_194:\n        /* \"#utility.yul\":2113:2176   */\n      swap2\n      pop\n        /* \"#utility.yul\":2069:2186   */\n      pop\n        /* \"#utility.yul\":1864:2193   */\n      swap3\n      swap2\n      pop\n      pop\n      jump\t// out\n        /* \"#utility.yul\":2199:2276   */\n    tag_150:\n        /* \"#utility.yul\":2236:2243   */\n      0x00\n        /* \"#utility.yul\":2265:2270   */\n      dup2\n        /* \"#utility.yul\":2254:2270   */\n      swap1\n      pop\n        /* \"#utility.yul\":2199:2276   */\n      swap2\n      swap1\n      pop\n      jump\t// out\n        /* \"#utility.yul\":2282:2400   */\n    tag_151:\n        /* \"#utility.yul\":2369:2393   */\n      tag_197\n        /* \"#utility.yul\":2387:2392   */\n      dup2\n        /* \"#utility.yul\":2369:2393   */\n      tag_150\n      jump\t// in\n    tag_197:\n        /* \"#utility.yul\":2364:2367   */\n      dup3\n        /* \"#utility.yul\":2357:2394   */\n      mstore\n        /* \"#utility.yul\":2282:2400   */\n      pop\n      pop\n      jump\t// out\n        /* \"#utility.yul\":2406:2628   */\n    tag_25:\n        /* \"#utility.yul\":2499:2503   */\n      0x00\n        /* \"#utility.yul\":2537:2539   */\n      0x20\n        /* \"#utility.yul\":2526:2535   */\n      dup3\n        /* \"#utility.yul\":2522:2540   */\n      add\n        /* \"#utility.yul\":2514:2540   */\n      swap1\n      pop\n        /* \"#utility.yul\":2550:2621   */\n      tag_199\n        /* \"#utility.yul\":2618:2619   */\n      0x00\n        /* \"#utility.yul\":2607:2616   */\n      dup4\n        /* \"#utility.yul\":2603:2620   */\n      add\n        /* \"#utility.yul\":2594:2600   */\n      dup5\n        /* \"#utility.yul\":2550:2621   */\n      tag_151\n      jump\t// in\n    tag_199:\n        /* \"#utility.yul\":2406:2628   */\n      swap3\n      swap2\n      pop\n      pop\n      jump\t// out\n        /* \"#utility.yul\":2634:2720   */\n    tag_152:\n        /* \"#utility.yul\":2669:2676   */\n      0x00\n        /* \"#utility.yul\":2709:2713   */\n      0xff\n        /* \"#utility.yul\":2702:2707   */\n      dup3\n        /* \"#utility.yul\":2698:2714   */\n      and\n        /* \"#utility.yul\":2687:2714   */\n      swap1\n      pop\n        /* \"#utility.yul\":2634:2720   */\n      swap2\n      swap1\n      pop\n      jump\t// out\n        /* \"#utility.yul\":2726:2838   */\n    tag_153:\n        /* \"#utility.yul\":2809:2831   */\n      tag_202\n        /* \"#utility.yul\":2825:2830   */\n      dup2\n        /* \"#utility.yul\":2809:2831   */\n      tag_152\n      jump\t// in\n    tag_202:\n        /* \"#utility.yul\":2804:2807   */\n      dup3\n        /* \"#utility.yul\":2797:2832   */\n      mstore\n        /* \"#utility.yul\":2726:2838   */\n      pop\n      pop\n      jump\t// out\n        /* \"#utility.yul\":2844:3058   */\n    tag_33:\n        /* \"#utility.yul\":2933:2937   */\n      0x00\n        /* \"#utility.yul\":2971:2973   */\n      0x20\n        /* \"#utility.yul\":2960:2969   */\n      dup3\n        /* \"#utility.yul\":2956:2974   */\n      add\n        /* \"#utility.yul\":2948:2974   */\n      swap1\n      pop\n        /* \"#utility.yul\":2984:3051   */\n      tag_204\n        /* \"#utility.yul\":3048:3049   */\n      0x00\n        /* \"#utility.yul\":3037:3046   */\n      dup4\n        /* \"#utility.yul\":3033:3050   */\n      add\n        /* \"#utility.yul\":3024:3030   */\n      dup5\n        /* \"#utility.yul\":2984:3051   */\n      tag_153\n      jump\t// in\n    tag_204:\n        /* \"#utility.yul\":2844:3058   */\n      swap3\n      swap2\n      pop\n      pop\n      jump\t// out\n        /* \"#utility.yul\":3064:3182   */\n    tag_154:\n        /* \"#utility.yul\":3151:3175   */\n      tag_206\n        /* \"#utility.yul\":3169:3174   */\n      dup2\n        /* \"#utility.yul\":3151:3175   */\n      tag_147\n      jump\t// in\n    tag_206:\n        /* \"#utility.yul\":3146:3149   */\n      dup3\n        /* \"#utility.yul\":3139:3176   */\n      mstore\n        /* \"#utility.yul\":3064:3182   */\n      pop\n      pop\n      jump\t// out\n        /* \"#utility.yul\":3188:3410   */\n    tag_37:\n        /* \"#utility.yul\":3281:3285   */\n      0x00\n        /* \"#utility.yul\":3319:3321   */\n      0x20\n        /* \"#utility.yul\":3308:3317   */\n      dup3\n        /* \"#utility.yul\":3304:3322   */\n      add\n        /* \"#utility.yul\":3296:3322   */\n      swap1\n      pop\n        /* \"#utility.yul\":3332:3403   */\n      tag_208\n        /* \"#utility.yul\":3400:3401   */\n      0x00\n        /* \"#utility.yul\":3389:3398   */\n      dup4\n        /* \"#utility.yul\":3385:3402   */\n      add\n        /* \"#utility.yul\":3376:3382   */\n      dup5\n        /* \"#utility.yul\":3332:3403   */\n      tag_154\n      jump\t// in\n    tag_208:\n        /* \"#utility.yul\":3188:3410   */\n      swap3\n      swap2\n      pop\n      pop\n      jump\t// out\n        /* \"#utility.yul\":3416:3538   */\n    tag_155:\n        /* \"#utility.yul\":3489:3513   */\n      tag_210\n        /* \"#utility.yul\":3507:3512   */\n      dup2\n        /* \"#utility.yul\":3489:3513   */\n      tag_150\n      jump\t// in\n    tag_210:\n        /* \"#utility.yul\":3482:3487   */\n      dup2\n        /* \"#utility.yul\":3479:3514   */\n      eq\n        /* \"#utility.yul\":3469:3532   */\n      tag_211\n      jumpi\n        /* \"#utility.yul\":3528:3529   */\n      0x00\n        /* \"#utility.yul\":3525:3526   */\n      dup1\n        /* \"#utility.yul\":3518:3530   */\n      revert\n        /* \"#utility.yul\":3469:3532   */\n    tag_211:\n        /* \"#utility.yul\":3416:3538   */\n      pop\n      jump\t// out\n        /* \"#utility.yul\":3544:3683   */\n    tag_156:\n        /* \"#utility.yul\":3590:3595   */\n      0x00\n        /* \"#utility.yul\":3628:3634   */\n      dup2\n        /* \"#utility.yul\":3615:3635   */\n      calldataload\n        /* \"#utility.yul\":3606:3635   */\n      swap1\n      pop\n        /* \"#utility.yul\":3644:3677   */\n      tag_213\n        /* \"#utility.yul\":3671:3676   */\n      dup2\n        /* \"#utility.yul\":3644:3677   */\n      tag_155\n      jump\t// in\n    tag_213:\n        /* \"#utility.yul\":3544:3683   */\n      swap3\n      swap2\n      pop\n      pop\n      jump\t// out\n        /* \"#utility.yul\":3689:4018   */\n    tag_53:\n        /* \"#utility.yul\":3748:3754   */\n      0x00\n        /* \"#utility.yul\":3797:3799   */\n      0x20\n        /* \"#utility.yul\":3785:3794   */\n      dup3\n        /* \"#utility.yul\":3776:3783   */\n      dup5\n        /* \"#utility.yul\":3772:3795   */\n      sub\n        /* \"#utility.yul\":3768:3800   */\n      slt\n        /* \"#utility.yul\":3765:3884   */\n      iszero\n      tag_215\n      jumpi\n        /* \"#utility.yul\":3803:3882   */\n      tag_216\n      tag_144\n      jump\t// in\n    tag_216:\n        /* \"#utility.yul\":3765:3884   */\n    tag_215:\n        /* \"#utility.yul\":3923:3924   */\n      0x00\n        /* \"#utility.yul\":3948:4001   */\n      tag_217\n        /* \"#utility.yul\":3993:4000   */\n      dup5\n        /* \"#utility.yul\":3984:3990   */\n      dup3\n        /* \"#utility.yul\":3973:3982   */\n      dup6\n        /* \"#utility.yul\":3969:3991   */\n      add\n        /* \"#utility.yul\":3948:4001   */\n      tag_156\n      jump\t// in\n    tag_217:\n        /* \"#utility.yul\":3938:4001   */\n      swap2\n      pop\n        /* \"#utility.yul\":3894:4011   */\n      pop\n        /* \"#utility.yul\":3689:4018   */\n      swap3\n      swap2\n      pop\n      pop\n      jump\t// out\n        /* \"#utility.yul\":4024:4114   */\n    tag_157:\n        /* \"#utility.yul\":4058:4065   */\n      0x00\n        /* \"#utility.yul\":4101:4106   */\n      dup2\n        /* \"#utility.yul\":4094:4107   */\n      iszero\n        /* \"#utility.yul\":4087:4108   */\n      iszero\n        /* \"#utility.yul\":4076:4108   */\n      swap1\n      pop\n        /* \"#utility.yul\":4024:4114   */\n      swap2\n      swap1\n      pop\n      jump\t// out\n        /* \"#utility.yul\":4120:4229   */\n    tag_158:\n        /* \"#utility.yul\":4201:4222   */\n      tag_220\n        /* \"#utility.yul\":4216:4221   */\n      dup2\n        /* \"#utility.yul\":4201:4222   */\n      tag_157\n      jump\t// in\n    tag_220:\n        /* \"#utility.yul\":4196:4199   */\n      dup3\n        /* \"#utility.yul\":4189:4223   */\n      mstore\n        /* \"#utility.yul\":4120:4229   */\n      pop\n      pop\n      jump\t// out\n        /* \"#utility.yul\":4235:4445   */\n    tag_60:\n        /* \"#utility.yul\":4322:4326   */\n      0x00\n        /* \"#utility.yul\":4360:4362   */\n      0x20\n        /* \"#utility.yul\":4349:4358   */\n      dup3\n        /* \"#utility.yul\":4345:4363   */\n      add\n        /* \"#utility.yul\":4337:4363   */\n      swap1\n      pop\n        /* \"#utility.yul\":4373:4438   */\n      tag_222\n        /* \"#utility.yul\":4435:4436   */\n      0x00\n        /* \"#utility.yul\":4424:4433   */\n      dup4\n        /* \"#utility.yul\":4420:4437   */\n      add\n        /* \"#utility.yul\":4411:4417   */\n      dup5\n        /* \"#utility.yul\":4373:4438   */\n      tag_158\n      jump\t// in\n    tag_222:\n        /* \"#utility.yul\":4235:4445   */\n      swap3\n      swap2\n      pop\n      pop\n      jump\t// out\n        /* \"#utility.yul\":4451:4620   */\n    tag_159:\n        /* \"#utility.yul\":4535:4546   */\n      0x00\n        /* \"#utility.yul\":4569:4575   */\n      dup3\n        /* \"#utility.yul\":4564:4567   */\n      dup3\n        /* \"#utility.yul\":4557:4576   */\n      mstore\n        /* \"#utility.yul\":4609:4613   */\n      0x20\n        /* \"#utility.yul\":4604:4607   */\n      dup3\n        /* \"#utility.yul\":4600:4614   */\n      add\n        /* \"#utility.yul\":4585:4614   */\n      swap1\n      pop\n        /* \"#utility.yul\":4451:4620   */\n      swap3\n      swap2\n      pop\n      pop\n      jump\t// out\n        /* \"#utility.yul\":4626:4799   */\n    tag_160:\n        /* \"#utility.yul\":4766:4791   */\n      0x6e6f742076616c69646174652063616e64696461746573000000000000000000\n        /* \"#utility.yul\":4762:4763   */\n      0x00\n        /* \"#utility.yul\":4754:4760   */\n      dup3\n        /* \"#utility.yul\":4750:4764   */\n      add\n        /* \"#utility.yul\":4743:4792   */\n      mstore\n        /* \"#utility.yul\":4626:4799   */\n      pop\n      jump\t// out\n        /* \"#utility.yul\":4805:5171   */\n    tag_161:\n        /* \"#utility.yul\":4947:4950   */\n      0x00\n        /* \"#utility.yul\":4968:5035   */\n      tag_226\n        /* \"#utility.yul\":5032:5034   */\n      0x17\n        /* \"#utility.yul\":5027:5030   */\n      dup4\n        /* \"#utility.yul\":4968:5035   */\n      tag_159\n      jump\t// in\n    tag_226:\n        /* \"#utility.yul\":4961:5035   */\n      swap2\n      pop\n        /* \"#utility.yul\":5044:5137   */\n      tag_227\n        /* \"#utility.yul\":5133:5136   */\n      dup3\n        /* \"#utility.yul\":5044:5137   */\n      tag_160\n      jump\t// in\n    tag_227:\n        /* \"#utility.yul\":5162:5164   */\n      0x20\n        /* \"#utility.yul\":5157:5160   */\n      dup3\n        /* \"#utility.yul\":5153:5165   */\n      add\n        /* \"#utility.yul\":5146:5165   */\n      swap1\n      pop\n        /* \"#utility.yul\":4805:5171   */\n      swap2\n      swap1\n      pop\n      jump\t// out\n        /* \"#utility.yul\":5177:5596   */\n    tag_65:\n        /* \"#utility.yul\":5343:5347   */\n      0x00\n        /* \"#utility.yul\":5381:5383   */\n      0x20\n        /* \"#utility.yul\":5370:5379   */\n      dup3\n        /* \"#utility.yul\":5366:5384   */\n      add\n        /* \"#utility.yul\":5358:5384   */\n      swap1\n      pop\n        /* \"#utility.yul\":5430:5439   */\n      dup2\n        /* \"#utility.yul\":5424:5428   */\n      dup2\n        /* \"#utility.yul\":5420:5440   */\n      sub\n        /* \"#utility.yul\":5416:5417   */\n      0x00\n        /* \"#utility.yul\":5405:5414   */\n      dup4\n        /* \"#utility.yul\":5401:5418   */\n      add\n        /* \"#utility.yul\":5394:5441   */\n      mstore\n        /* \"#utility.yul\":5458:5589   */\n      tag_229\n        /* \"#utility.yul\":5584:5588   */\n      dup2\n        /* \"#utility.yul\":5458:5589   */\n      tag_161\n      jump\t// in\n    tag_229:\n        /* \"#utility.yul\":5450:5589   */\n      swap1\n      pop\n        /* \"#utility.yul\":5177:5596   */\n      swap2\n      swap1\n      pop\n      jump\t// out\n        /* \"#utility.yul\":5602:5782   */\n    tag_73:\n        /* \"#utility.yul\":5650:5727   */\n      0x4e487b7100000000000000000000000000000000000000000000000000000000\n        /* \"#utility.yul\":5647:5648   */\n      0x00\n        /* \"#utility.yul\":5640:5728   */\n      mstore\n        /* \"#utility.yul\":5747:5751   */\n      0x01\n        /* \"#utility.yul\":5744:5745   */\n      0x04\n        /* \"#utility.yul\":5737:5752   */\n      mstore\n        /* \"#utility.yul\":5771:5775   */\n      0x24\n        /* \"#utility.yul\":5768:5769   */\n      0x00\n        /* \"#utility.yul\":5761:5776   */\n      revert\n        /* \"#utility.yul\":5788:5963   */\n    tag_162:\n        /* \"#utility.yul\":5928:5955   */\n      0x656c656374696f6e206973206e6f7420636f6d706c6574656400000000000000\n        /* \"#utility.yul\":5924:5925   */\n      0x00\n        /* \"#utility.yul\":5916:5922   */\n      dup3\n        /* \"#utility.yul\":5912:5926   */\n      add\n        /* \"#utility.yul\":5905:5956   */\n      mstore\n        /* \"#utility.yul\":5788:5963   */\n      pop\n      jump\t// out\n        /* \"#utility.yul\":5969:6335   */\n    tag_163:\n        /* \"#utility.yul\":6111:6114   */\n      0x00\n        /* \"#utility.yul\":6132:6199   */\n      tag_233\n        /* \"#utility.yul\":6196:6198   */\n      0x19\n        /* \"#utility.yul\":6191:6194   */\n      dup4\n        /* \"#utility.yul\":6132:6199   */\n      tag_159\n      jump\t// in\n    tag_233:\n        /* \"#utility.yul\":6125:6199   */\n      swap2\n      pop\n        /* \"#utility.yul\":6208:6301   */\n      tag_234\n        /* \"#utility.yul\":6297:6300   */\n      dup3\n        /* \"#utility.yul\":6208:6301   */\n      tag_162\n      jump\t// in\n    tag_234:\n        /* \"#utility.yul\":6326:6328   */\n      0x20\n        /* \"#utility.yul\":6321:6324   */\n      dup3\n        /* \"#utility.yul\":6317:6329   */\n      add\n        /* \"#utility.yul\":6310:6329   */\n      swap1\n      pop\n        /* \"#utility.yul\":5969:6335   */\n      swap2\n      swap1\n      pop\n      jump\t// out\n        /* \"#utility.yul\":6341:6760   */\n    tag_85:\n        /* \"#utility.yul\":6507:6511   */\n      0x00\n        /* \"#utility.yul\":6545:6547   */\n      0x20\n        /* \"#utility.yul\":6534:6543   */\n      dup3\n        /* \"#utility.yul\":6530:6548   */\n      add\n        /* \"#utility.yul\":6522:6548   */\n      swap1\n      pop\n        /* \"#utility.yul\":6594:6603   */\n      dup2\n        /* \"#utility.yul\":6588:6592   */\n      dup2\n        /* \"#utility.yul\":6584:6604   */\n      sub\n        /* \"#utility.yul\":6580:6581   */\n      0x00\n        /* \"#utility.yul\":6569:6578   */\n      dup4\n        /* \"#utility.yul\":6565:6582   */\n      add\n        /* \"#utility.yul\":6558:6605   */\n      mstore\n        /* \"#utility.yul\":6622:6753   */\n      tag_236\n        /* \"#utility.yul\":6748:6752   */\n      dup2\n        /* \"#utility.yul\":6622:6753   */\n      tag_163\n      jump\t// in\n    tag_236:\n        /* \"#utility.yul\":6614:6753   */\n      swap1\n      pop\n        /* \"#utility.yul\":6341:6760   */\n      swap2\n      swap1\n      pop\n      jump\t// out\n        /* \"#utility.yul\":6766:6946   */\n    tag_91:\n        /* \"#utility.yul\":6814:6891   */\n      0x4e487b7100000000000000000000000000000000000000000000000000000000\n        /* \"#utility.yul\":6811:6812   */\n      0x00\n        /* \"#utility.yul\":6804:6892   */\n      mstore\n        /* \"#utility.yul\":6911:6915   */\n      0x32\n        /* \"#utility.yul\":6908:6909   */\n      0x04\n        /* \"#utility.yul\":6901:6916   */\n      mstore\n        /* \"#utility.yul\":6935:6939   */\n      0x24\n        /* \"#utility.yul\":6932:6933   */\n      0x00\n        /* \"#utility.yul\":6925:6940   */\n      revert\n        /* \"#utility.yul\":6952:7132   */\n    tag_164:\n        /* \"#utility.yul\":7000:7077   */\n      0x4e487b7100000000000000000000000000000000000000000000000000000000\n        /* \"#utility.yul\":6997:6998   */\n      0x00\n        /* \"#utility.yul\":6990:7078   */\n      mstore\n        /* \"#utility.yul\":7097:7101   */\n      0x11\n        /* \"#utility.yul\":7094:7095   */\n      0x04\n        /* \"#utility.yul\":7087:7102   */\n      mstore\n        /* \"#utility.yul\":7121:7125   */\n      0x24\n        /* \"#utility.yul\":7118:7119   */\n      0x00\n        /* \"#utility.yul\":7111:7126   */\n      revert\n        /* \"#utility.yul\":7138:7371   */\n    tag_101:\n        /* \"#utility.yul\":7177:7180   */\n      0x00\n        /* \"#utility.yul\":7200:7224   */\n      tag_240\n        /* \"#utility.yul\":7218:7223   */\n      dup3\n        /* \"#utility.yul\":7200:7224   */\n      tag_150\n      jump\t// in\n    tag_240:\n        /* \"#utility.yul\":7191:7224   */\n      swap2\n      pop\n        /* \"#utility.yul\":7246:7312   */\n      0xffffffffffffffffffffffffffffffffffffffffffffffffffffffffffffffff\n        /* \"#utility.yul\":7239:7244   */\n      dup3\n        /* \"#utility.yul\":7236:7313   */\n      sub\n        /* \"#utility.yul\":7233:7336   */\n      tag_241\n      jumpi\n        /* \"#utility.yul\":7316:7334   */\n      tag_242\n      tag_164\n      jump\t// in\n    tag_242:\n        /* \"#utility.yul\":7233:7336   */\n    tag_241:\n        /* \"#utility.yul\":7363:7364   */\n      0x01\n        /* \"#utility.yul\":7356:7361   */\n      dup3\n        /* \"#utility.yul\":7352:7365   */\n      add\n        /* \"#utility.yul\":7345:7365   */\n      swap1\n      pop\n        /* \"#utility.yul\":7138:7371   */\n      swap2\n      swap1\n      pop\n      jump\t// out\n        /* \"#utility.yul\":7377:7549   */\n    tag_165:\n        /* \"#utility.yul\":7517:7541   */\n      0x656c656374696f6e206973206e6f742061637469766500000000000000000000\n        /* \"#utility.yul\":7513:7514   */\n      0x00\n        /* \"#utility.yul\":7505:7511   */\n      dup3\n        /* \"#utility.yul\":7501:7515   */\n      add\n        /* \"#utility.yul\":7494:7542   */\n      mstore\n        /* \"#utility.yul\":7377:7549   */\n      pop\n      jump\t// out\n        /* \"#utility.yul\":7555:7921   */\n    tag_166:\n        /* \"#utility.yul\":7697:7700   */\n      0x00\n        /* \"#utility.yul\":7718:7785   */\n      tag_245\n        /* \"#utility.yul\":7782:7784   */\n      0x16\n        /* \"#utility.yul\":7777:7780   */\n      dup4\n        /* \"#utility.yul\":7718:7785   */\n      tag_159\n      jump\t// in\n    tag_245:\n        /* \"#utility.yul\":7711:7785   */\n      swap2\n      pop\n        /* \"#utility.yul\":7794:7887   */\n      tag_246\n        /* \"#utility.yul\":7883:7886   */\n      dup3\n        /* \"#utility.yul\":7794:7887   */\n      tag_165\n      jump\t// in\n    tag_246:\n        /* \"#utility.yul\":7912:7914   */\n      0x20\n        /* \"#utility.yul\":7907:7910   */\n      dup3\n        /* \"#utility.yul\":7903:7915   */\n      add\n        /* \"#utility.yul\":7896:7915   */\n      swap1\n      pop\n        /* \"#utility.yul\":7555:7921   */\n      swap2\n      swap1\n      pop\n      jump\t// out\n        /* \"#utility.yul\":7927:8346   */\n    tag_112:\n        /* \"#utility.yul\":8093:8097   */\n      0x00\n        /* \"#utility.yul\":8131:8133   */\n      0x20\n        /* \"#utility.yul\":8120:8129   */\n      dup3\n        /* \"#utility.yul\":8116:8134   */\n      add\n        /* \"#utility.yul\":8108:8134   */\n      swap1\n      pop\n        /* \"#utility.yul\":8180:8189   */\n      dup2\n        /* \"#utility.yul\":8174:8178   */\n      dup2\n        /* \"#utility.yul\":8170:8190   */\n      sub\n        /* \"#utility.yul\":8166:8167   */\n      0x00\n        /* \"#utility.yul\":8155:8164   */\n      dup4\n        /* \"#utility.yul\":8151:8168   */\n      add\n        /* \"#utility.yul\":8144:8191   */\n      mstore\n        /* \"#utility.yul\":8208:8339   */\n      tag_248\n        /* \"#utility.yul\":8334:8338   */\n      dup2\n        /* \"#utility.yul\":8208:8339   */\n      tag_166\n      jump\t// in\n    tag_248:\n        /* \"#utility.yul\":8200:8339   */\n      swap1\n      pop\n        /* \"#utility.yul\":7927:8346   */\n      swap2\n      swap1\n      pop\n      jump\t// out\n        /* \"#utility.yul\":8352:8540   */\n    tag_114:\n        /* \"#utility.yul\":8390:8393   */\n      0x00\n        /* \"#utility.yul\":8409:8427   */\n      tag_250\n        /* \"#utility.yul\":8425:8426   */\n      dup3\n        /* \"#utility.yul\":8409:8427   */\n      tag_152\n      jump\t// in\n    tag_250:\n        /* \"#utility.yul\":8404:8427   */\n      swap2\n      pop\n        /* \"#utility.yul\":8441:8459   */\n      tag_251\n        /* \"#utility.yul\":8457:8458   */\n      dup4\n        /* \"#utility.yul\":8441:8459   */\n      tag_152\n      jump\t// in\n    tag_251:\n        /* \"#utility.yul\":8436:8459   */\n      swap3\n      pop\n        /* \"#utility.yul\":8482:8483   */\n      dup3\n        /* \"#utility.yul\":8479:8480   */\n      dup3\n        /* \"#utility.yul\":8475:8484   */\n      add\n        /* \"#utility.yul\":8468:8484   */\n      swap1\n      pop\n        /* \"#utility.yul\":8505:8509   */\n      0xff\n        /* \"#utility.yul\":8500:8503   */\n      dup2\n        /* \"#utility.yul\":8497:8510   */\n      gt\n        /* \"#utility.yul\":8494:8533   */\n      iszero\n      tag_252\n      jumpi\n        /* \"#utility.yul\":8513:8531   */\n      tag_253\n      tag_164\n      jump\t// in\n    tag_253:\n        /* \"#utility.yul\":8494:8533   */\n    tag_252:\n        /* \"#utility.yul\":8352:8540   */\n      swap3\n      swap2\n      pop\n      pop\n      jump\t// out\n\n    auxdata: 0xa264697066735822122031da24f0876d765ff677e0ed9e3af1a2b8f04fb89fe29c3221fb69e6949492b764736f6c63430008150033\n}\n",
				"bytecode": {
					"linkReferences": {},
					"object": "608060405234801561000f575f80fd5b50335f806101000a81548173ffffffffffffffffffffffffffffffffffffffff021916908373ffffffffffffffffffffffffffffffffffffffff160217905550610e528061005c5f395ff3fe608060405234801561000f575f80fd5b50600436106100b2575f3560e01c80636dd7d8ea1161006f5780636dd7d8ea14610178578063759ece88146101945780638b2b429c146101b2578063d426b5d4146101bc578063d8d4c926146101da578063ef2eb3281461020a576100b2565b8063071a9cd6146100b65780630d934743146100d45780633a6697b5146101045780634e68c18c146101205780636098c94c14610150578063653721471461016e575b5f80fd5b6100be61023a565b6040516100cb9190610a1b565b60405180910390f35b6100ee60048036038101906100e99190610a92565b61024c565b6040516100fb9190610ad5565b60405180910390f35b61011e60048036038101906101199190610a92565b61032c565b005b61013a60048036038101906101359190610a92565b6103e2565b6040516101479190610b09565b60405180910390f35b6101586103ff565b6040516101659190610b31565b60405180910390f35b610176610422565b005b610192600480360381019061018d9190610a92565b610656565b005b61019c6107c0565b6040516101a99190610ad5565b60405180910390f35b6101ba6107c6565b005b6101c46108ae565b6040516101d19190610b31565b60405180910390f35b6101f460048036038101906101ef9190610b74565b6108d3565b6040516102019190610b31565b60405180910390f35b610224600480360381019061021f9190610a92565b61090e565b6040516102319190610bb9565b60405180910390f35b60055f9054906101000a900460ff1681565b5f6102568261090e565b610295576040517f08c379a000000000000000000000000000000000000000000000000000000000815260040161028c90610c2c565b60405180910390fd5b600160028111156102a9576102a86109a8565b5b60055f9054906101000a900460ff1660028111156102ca576102c96109a8565b5b146102d8576102d7610c4a565b5b60025f8373ffffffffffffffffffffffffffffffffffffffff1673ffffffffffffffffffffffffffffffffffffffff1681526020019081526020015f205f9054906101000a900460ff1660ff169050919050565b5f8054906101000a900473ffffffffffffffffffffffffffffffffffffffff1673ffffffffffffffffffffffffffffffffffffffff163373ffffffffffffffffffffffffffffffffffffffff16036103df57600181908060018154018082558091505060019003905f5260205f20015f9091909190916101000a81548173ffffffffffffffffffffffffffffffffffffffff021916908373ffffffffffffffffffffffffffffffffffffffff1602179055505b50565b6002602052805f5260405f205f915054906101000a900460ff1681565b5f8054906101000a900473ffffffffffffffffffffffffffffffffffffffff1681565b600280811115610435576104346109a8565b5b60055f9054906101000a900460ff166002811115610456576104556109a8565b5b14610496576040517f08c379a000000000000000000000000000000000000000000000000000000000815260040161048d90610cc1565b60405180910390fd5b5f5b6001805490508110156106535760045460025f600184815481106104bf576104be610cdf565b5b905f5260205f20015f9054906101000a900473ffffffffffffffffffffffffffffffffffffffff1673ffffffffffffffffffffffffffffffffffffffff1673ffffffffffffffffffffffffffffffffffffffff1681526020019081526020015f205f9054906101000a900460ff1660ff1611156106405760025f6001838154811061054d5761054c610cdf565b5b905f5260205f20015f9054906101000a900473ffffffffffffffffffffffffffffffffffffffff1673ffffffffffffffffffffffffffffffffffffffff1673ffffffffffffffffffffffffffffffffffffffff1681526020019081526020015f205f9054906101000a900460ff1660ff16600481905550600181815481106105d8576105d7610cdf565b5b905f5260205f20015f9054906101000a900473ffffffffffffffffffffffffffffffffffffffff1660035f6101000a81548173ffffffffffffffffffffffffffffffffffffffff021916908373ffffffffffffffffffffffffffffffffffffffff1602179055505b808061064b90610d39565b915050610498565b50565b61065f8161090e565b61069e576040517f08c379a000000000000000000000000000000000000000000000000000000000815260040161069590610c2c565b60405180910390fd5b600160028111156106b2576106b16109a8565b5b60055f9054906101000a900460ff1660028111156106d3576106d26109a8565b5b14610713576040517f08c379a000000000000000000000000000000000000000000000000000000000815260040161070a90610dca565b60405180910390fd5b600160025f8373ffffffffffffffffffffffffffffffffffffffff1673ffffffffffffffffffffffffffffffffffffffff1681526020019081526020015f205f9054906101000a900460ff166107699190610de8565b60025f8373ffffffffffffffffffffffffffffffffffffffff1673ffffffffffffffffffffffffffffffffffffffff1681526020019081526020015f205f6101000a81548160ff021916908360ff16021790555050565b60045481565b5f8054906101000a900473ffffffffffffffffffffffffffffffffffffffff1673ffffffffffffffffffffffffffffffffffffffff163373ffffffffffffffffffffffffffffffffffffffff16036108ac5760028081111561082b5761082a6109a8565b5b60055f9054906101000a900460ff16600281111561084c5761084b6109a8565b5b1461088057600160055f6101000a81548160ff02191690836002811115610876576108756109a8565b5b02179055506108ab565b600260055f6101000a81548160ff021916908360028111156108a5576108a46109a8565b5b02179055505b5b565b60035f9054906101000a900473ffffffffffffffffffffffffffffffffffffffff1681565b600181815481106108e2575f80fd5b905f5260205f20015f915054906101000a900473ffffffffffffffffffffffffffffffffffffffff1681565b5f805f90506001805490508110156109a1578273ffffffffffffffffffffffffffffffffffffffff166001828154811061094b5761094a610cdf565b5b905f5260205f20015f9054906101000a900473ffffffffffffffffffffffffffffffffffffffff1673ffffffffffffffffffffffffffffffffffffffff16036109985760019150506109a3565b5f9150506109a3565b505b919050565b7f4e487b71000000000000000000000000000000000000000000000000000000005f52602160045260245ffd5b600381106109e6576109e56109a8565b5b50565b5f8190506109f6826109d5565b919050565b5f610a05826109e9565b9050919050565b610a15816109fb565b82525050565b5f602082019050610a2e5f830184610a0c565b92915050565b5f80fd5b5f73ffffffffffffffffffffffffffffffffffffffff82169050919050565b5f610a6182610a38565b9050919050565b610a7181610a57565b8114610a7b575f80fd5b50565b5f81359050610a8c81610a68565b92915050565b5f60208284031215610aa757610aa6610a34565b5b5f610ab484828501610a7e565b91505092915050565b5f819050919050565b610acf81610abd565b82525050565b5f602082019050610ae85f830184610ac6565b92915050565b5f60ff82169050919050565b610b0381610aee565b82525050565b5f602082019050610b1c5f830184610afa565b92915050565b610b2b81610a57565b82525050565b5f602082019050610b445f830184610b22565b92915050565b610b5381610abd565b8114610b5d575f80fd5b50565b5f81359050610b6e81610b4a565b92915050565b5f60208284031215610b8957610b88610a34565b5b5f610b9684828501610b60565b91505092915050565b5f8115159050919050565b610bb381610b9f565b82525050565b5f602082019050610bcc5f830184610baa565b92915050565b5f82825260208201905092915050565b7f6e6f742076616c69646174652063616e646964617465730000000000000000005f82015250565b5f610c16601783610bd2565b9150610c2182610be2565b602082019050919050565b5f6020820190508181035f830152610c4381610c0a565b9050919050565b7f4e487b71000000000000000000000000000000000000000000000000000000005f52600160045260245ffd5b7f656c656374696f6e206973206e6f7420636f6d706c65746564000000000000005f82015250565b5f610cab601983610bd2565b9150610cb682610c77565b602082019050919050565b5f6020820190508181035f830152610cd881610c9f565b9050919050565b7f4e487b71000000000000000000000000000000000000000000000000000000005f52603260045260245ffd5b7f4e487b71000000000000000000000000000000000000000000000000000000005f52601160045260245ffd5b5f610d4382610abd565b91507fffffffffffffffffffffffffffffffffffffffffffffffffffffffffffffffff8203610d7557610d74610d0c565b5b600182019050919050565b7f656c656374696f6e206973206e6f7420616374697665000000000000000000005f82015250565b5f610db4601683610bd2565b9150610dbf82610d80565b602082019050919050565b5f6020820190508181035f830152610de181610da8565b9050919050565b5f610df282610aee565b9150610dfd83610aee565b9250828201905060ff811115610e1657610e15610d0c565b5b9291505056fea264697066735822122031da24f0876d765ff677e0ed9e3af1a2b8f04fb89fe29c3221fb69e6949492b764736f6c63430008150033",
					"opcodes": "PUSH1 0x80 PUSH1 0x40 MSTORE CALLVALUE DUP1 ISZERO PUSH2 0xF JUMPI PUSH0 DUP1 REVERT JUMPDEST POP CALLER PUSH0 DUP1 PUSH2 0x100 EXP DUP2 SLOAD DUP2 PUSH20 0xFFFFFFFFFFFFFFFFFFFFFFFFFFFFFFFFFFFFFFFF MUL NOT AND SWAP1 DUP4 PUSH20 0xFFFFFFFFFFFFFFFFFFFFFFFFFFFFFFFFFFFFFFFF AND MUL OR SWAP1 SSTORE POP PUSH2 0xE52 DUP1 PUSH2 0x5C PUSH0 CODECOPY PUSH0 RETURN INVALID PUSH1 0x80 PUSH1 0x40 MSTORE CALLVALUE DUP1 ISZERO PUSH2 0xF JUMPI PUSH0 DUP1 REVERT JUMPDEST POP PUSH1 0x4 CALLDATASIZE LT PUSH2 0xB2 JUMPI PUSH0 CALLDATALOAD PUSH1 0xE0 SHR DUP1 PUSH4 0x6DD7D8EA GT PUSH2 0x6F JUMPI DUP1 PUSH4 0x6DD7D8EA EQ PUSH2 0x178 JUMPI DUP1 PUSH4 0x759ECE88 EQ PUSH2 0x194 JUMPI DUP1 PUSH4 0x8B2B429C EQ PUSH2 0x1B2 JUMPI DUP1 PUSH4 0xD426B5D4 EQ PUSH2 0x1BC JUMPI DUP1 PUSH4 0xD8D4C926 EQ PUSH2 0x1DA JUMPI DUP1 PUSH4 0xEF2EB328 EQ PUSH2 0x20A JUMPI PUSH2 0xB2 JUMP JUMPDEST DUP1 PUSH4 0x71A9CD6 EQ PUSH2 0xB6 JUMPI DUP1 PUSH4 0xD934743 EQ PUSH2 0xD4 JUMPI DUP1 PUSH4 0x3A6697B5 EQ PUSH2 0x104 JUMPI DUP1 PUSH4 0x4E68C18C EQ PUSH2 0x120 JUMPI DUP1 PUSH4 0x6098C94C EQ PUSH2 0x150 JUMPI DUP1 PUSH4 0x65372147 EQ PUSH2 0x16E JUMPI JUMPDEST PUSH0 DUP1 REVERT JUMPDEST PUSH2 0xBE PUSH2 0x23A JUMP JUMPDEST PUSH1 0x40 MLOAD PUSH2 0xCB SWAP2 SWAP1 PUSH2 0xA1B JUMP JUMPDEST PUSH1 0x40 MLOAD DUP1 SWAP2 SUB SWAP1 RETURN JUMPDEST PUSH2 0xEE PUSH1 0x4 DUP1 CALLDATASIZE SUB DUP2 ADD SWAP1 PUSH2 0xE9 SWAP2 SWAP1 PUSH2 0xA92 JUMP JUMPDEST PUSH2 0x24C JUMP JUMPDEST PUSH1 0x40 MLOAD PUSH2 0xFB SWAP2 SWAP1 PUSH2 0xAD5 JUMP JUMPDEST PUSH1 0x40 MLOAD DUP1 SWAP2 SUB SWAP1 RETURN JUMPDEST PUSH2 0x11E PUSH1 0x4 DUP1 CALLDATASIZE SUB DUP2 ADD SWAP1 PUSH2 0x119 SWAP2 SWAP1 PUSH2 0xA92 JUMP JUMPDEST PUSH2 0x32C JUMP JUMPDEST STOP JUMPDEST PUSH2 0x13A PUSH1 0x4 DUP1 CALLDATASIZE SUB DUP2 ADD SWAP1 PUSH2 0x135 SWAP2 SWAP1 PUSH2 0xA92 JUMP JUMPDEST PUSH2 0x3E2 JUMP JUMPDEST PUSH1 0x40 MLOAD PUSH2 0x147 SWAP2 SWAP1 PUSH2 0xB09 JUMP JUMPDEST PUSH1 0x40 MLOAD DUP1 SWAP2 SUB SWAP1 RETURN JUMPDEST PUSH2 0x158 PUSH2 0x3FF JUMP JUMPDEST PUSH1 0x40 MLOAD PUSH2 0x165 SWAP2 SWAP1 PUSH2 0xB31 JUMP JUMPDEST PUSH1 0x40 MLOAD DUP1 SWAP2 SUB SWAP1 RETURN JUMPDEST PUSH2 0x176 PUSH2 0x422 JUMP JUMPDEST STOP JUMPDEST PUSH2 0x192 PUSH1 0x4 DUP1 CALLDATASIZE SUB DUP2 ADD SWAP1 PUSH2 0x18D SWAP2 SWAP1 PUSH2 0xA92 JUMP JUMPDEST PUSH2 0x656 JUMP JUMPDEST STOP JUMPDEST PUSH2 0x19C PUSH2 0x7C0 JUMP JUMPDEST PUSH1 0x40 MLOAD PUSH2 0x1A9 SWAP2 SWAP1 PUSH2 0xAD5 JUMP JUMPDEST PUSH1 0x40 MLOAD DUP1 SWAP2 SUB SWAP1 RETURN JUMPDEST PUSH2 0x1BA PUSH2 0x7C6 JUMP JUMPDEST STOP JUMPDEST PUSH2 0x1C4 PUSH2 0x8AE JUMP JUMPDEST PUSH1 0x40 MLOAD PUSH2 0x1D1 SWAP2 SWAP1 PUSH2 0xB31 JUMP JUMPDEST PUSH1 0x40 MLOAD DUP1 SWAP2 SUB SWAP1 RETURN JUMPDEST PUSH2 0x1F4 PUSH1 0x4 DUP1 CALLDATASIZE SUB DUP2 ADD SWAP1 PUSH2 0x1EF SWAP2 SWAP1 PUSH2 0xB74 JUMP JUMPDEST PUSH2 0x8D3 JUMP JUMPDEST PUSH1 0x40 MLOAD PUSH2 0x201 SWAP2 SWAP1 PUSH2 0xB31 JUMP JUMPDEST PUSH1 0x40 MLOAD DUP1 SWAP2 SUB SWAP1 RETURN JUMPDEST PUSH2 0x224 PUSH1 0x4 DUP1 CALLDATASIZE SUB DUP2 ADD SWAP1 PUSH2 0x21F SWAP2 SWAP1 PUSH2 0xA92 JUMP JUMPDEST PUSH2 0x90E JUMP JUMPDEST PUSH1 0x40 MLOAD PUSH2 0x231 SWAP2 SWAP1 PUSH2 0xBB9 JUMP JUMPDEST PUSH1 0x40 MLOAD DUP1 SWAP2 SUB SWAP1 RETURN JUMPDEST PUSH1 0x5 PUSH0 SWAP1 SLOAD SWAP1 PUSH2 0x100 EXP SWAP1 DIV PUSH1 0xFF AND DUP2 JUMP JUMPDEST PUSH0 PUSH2 0x256 DUP3 PUSH2 0x90E JUMP JUMPDEST PUSH2 0x295 JUMPI PUSH1 0x40 MLOAD PUSH32 0x8C379A000000000000000000000000000000000000000000000000000000000 DUP2 MSTORE PUSH1 0x4 ADD PUSH2 0x28C SWAP1 PUSH2 0xC2C JUMP JUMPDEST PUSH1 0x40 MLOAD DUP1 SWAP2 SUB SWAP1 REVERT JUMPDEST PUSH1 0x1 PUSH1 0x2 DUP2 GT ISZERO PUSH2 0x2A9 JUMPI PUSH2 0x2A8 PUSH2 0x9A8 JUMP JUMPDEST JUMPDEST PUSH1 0x5 PUSH0 SWAP1 SLOAD SWAP1 PUSH2 0x100 EXP SWAP1 DIV PUSH1 0xFF AND PUSH1 0x2 DUP2 GT ISZERO PUSH2 0x2CA JUMPI PUSH2 0x2C9 PUSH2 0x9A8 JUMP JUMPDEST JUMPDEST EQ PUSH2 0x2D8 JUMPI PUSH2 0x2D7 PUSH2 0xC4A JUMP JUMPDEST JUMPDEST PUSH1 0x2 PUSH0 DUP4 PUSH20 0xFFFFFFFFFFFFFFFFFFFFFFFFFFFFFFFFFFFFFFFF AND PUSH20 0xFFFFFFFFFFFFFFFFFFFFFFFFFFFFFFFFFFFFFFFF AND DUP2 MSTORE PUSH1 0x20 ADD SWAP1 DUP2 MSTORE PUSH1 0x20 ADD PUSH0 KECCAK256 PUSH0 SWAP1 SLOAD SWAP1 PUSH2 0x100 EXP SWAP1 DIV PUSH1 0xFF AND PUSH1 0xFF AND SWAP1 POP SWAP2 SWAP1 POP JUMP JUMPDEST PUSH0 DUP1 SLOAD SWAP1 PUSH2 0x100 EXP SWAP1 DIV PUSH20 0xFFFFFFFFFFFFFFFFFFFFFFFFFFFFFFFFFFFFFFFF AND PUSH20 0xFFFFFFFFFFFFFFFFFFFFFFFFFFFFFFFFFFFFFFFF AND CALLER PUSH20 0xFFFFFFFFFFFFFFFFFFFFFFFFFFFFFFFFFFFFFFFF AND SUB PUSH2 0x3DF JUMPI PUSH1 0x1 DUP2 SWAP1 DUP1 PUSH1 0x1 DUP2 SLOAD ADD DUP1 DUP3 SSTORE DUP1 SWAP2 POP POP PUSH1 0x1 SWAP1 SUB SWAP1 PUSH0 MSTORE PUSH1 0x20 PUSH0 KECCAK256 ADD PUSH0 SWAP1 SWAP2 SWAP1 SWAP2 SWAP1 SWAP2 PUSH2 0x100 EXP DUP2 SLOAD DUP2 PUSH20 0xFFFFFFFFFFFFFFFFFFFFFFFFFFFFFFFFFFFFFFFF MUL NOT AND SWAP1 DUP4 PUSH20 0xFFFFFFFFFFFFFFFFFFFFFFFFFFFFFFFFFFFFFFFF AND MUL OR SWAP1 SSTORE POP JUMPDEST POP JUMP JUMPDEST PUSH1 0x2 PUSH1 0x20 MSTORE DUP1 PUSH0 MSTORE PUSH1 0x40 PUSH0 KECCAK256 PUSH0 SWAP2 POP SLOAD SWAP1 PUSH2 0x100 EXP SWAP1 DIV PUSH1 0xFF AND DUP2 JUMP JUMPDEST PUSH0 DUP1 SLOAD SWAP1 PUSH2 0x100 EXP SWAP1 DIV PUSH20 0xFFFFFFFFFFFFFFFFFFFFFFFFFFFFFFFFFFFFFFFF AND DUP2 JUMP JUMPDEST PUSH1 0x2 DUP1 DUP2 GT ISZERO PUSH2 0x435 JUMPI PUSH2 0x434 PUSH2 0x9A8 JUMP JUMPDEST JUMPDEST PUSH1 0x5 PUSH0 SWAP1 SLOAD SWAP1 PUSH2 0x100 EXP SWAP1 DIV PUSH1 0xFF AND PUSH1 0x2 DUP2 GT ISZERO PUSH2 0x456 JUMPI PUSH2 0x455 PUSH2 0x9A8 JUMP JUMPDEST JUMPDEST EQ PUSH2 0x496 JUMPI PUSH1 0x40 MLOAD PUSH32 0x8C379A000000000000000000000000000000000000000000000000000000000 DUP2 MSTORE PUSH1 0x4 ADD PUSH2 0x48D SWAP1 PUSH2 0xCC1 JUMP JUMPDEST PUSH1 0x40 MLOAD DUP1 SWAP2 SUB SWAP1 REVERT JUMPDEST PUSH0 JUMPDEST PUSH1 0x1 DUP1 SLOAD SWAP1 POP DUP2 LT ISZERO PUSH2 0x653 JUMPI PUSH1 0x4 SLOAD PUSH1 0x2 PUSH0 PUSH1 0x1 DUP5 DUP2 SLOAD DUP2 LT PUSH2 0x4BF JUMPI PUSH2 0x4BE PUSH2 0xCDF JUMP JUMPDEST JUMPDEST SWAP1 PUSH0 MSTORE PUSH1 0x20 PUSH0 KECCAK256 ADD PUSH0 SWAP1 SLOAD SWAP1 PUSH2 0x100 EXP SWAP1 DIV PUSH20 0xFFFFFFFFFFFFFFFFFFFFFFFFFFFFFFFFFFFFFFFF AND PUSH20 0xFFFFFFFFFFFFFFFFFFFFFFFFFFFFFFFFFFFFFFFF AND PUSH20 0xFFFFFFFFFFFFFFFFFFFFFFFFFFFFFFFFFFFFFFFF AND DUP2 MSTORE PUSH1 0x20 ADD SWAP1 DUP2 MSTORE PUSH1 0x20 ADD PUSH0 KECCAK256 PUSH0 SWAP1 SLOAD SWAP1 PUSH2 0x100 EXP SWAP1 DIV PUSH1 0xFF AND PUSH1 0xFF AND GT ISZERO PUSH2 0x640 JUMPI PUSH1 0x2 PUSH0 PUSH1 0x1 DUP4 DUP2 SLOAD DUP2 LT PUSH2 0x54D JUMPI PUSH2 0x54C PUSH2 0xCDF JUMP JUMPDEST JUMPDEST SWAP1 PUSH0 MSTORE PUSH1 0x20 PUSH0 KECCAK256 ADD PUSH0 SWAP1 SLOAD SWAP1 PUSH2 0x100 EXP SWAP1 DIV PUSH20 0xFFFFFFFFFFFFFFFFFFFFFFFFFFFFFFFFFFFFFFFF AND PUSH20 0xFFFFFFFFFFFFFFFFFFFFFFFFFFFFFFFFFFFFFFFF AND PUSH20 0xFFFFFFFFFFFFFFFFFFFFFFFFFFFFFFFFFFFFFFFF AND DUP2 MSTORE PUSH1 0x20 ADD SWAP1 DUP2 MSTORE PUSH1 0x20 ADD PUSH0 KECCAK256 PUSH0 SWAP1 SLOAD SWAP1 PUSH2 0x100 EXP SWAP1 DIV PUSH1 0xFF AND PUSH1 0xFF AND PUSH1 0x4 DUP2 SWAP1 SSTORE POP PUSH1 0x1 DUP2 DUP2 SLOAD DUP2 LT PUSH2 0x5D8 JUMPI PUSH2 0x5D7 PUSH2 0xCDF JUMP JUMPDEST JUMPDEST SWAP1 PUSH0 MSTORE PUSH1 0x20 PUSH0 KECCAK256 ADD PUSH0 SWAP1 SLOAD SWAP1 PUSH2 0x100 EXP SWAP1 DIV PUSH20 0xFFFFFFFFFFFFFFFFFFFFFFFFFFFFFFFFFFFFFFFF AND PUSH1 0x3 PUSH0 PUSH2 0x100 EXP DUP2 SLOAD DUP2 PUSH20 0xFFFFFFFFFFFFFFFFFFFFFFFFFFFFFFFFFFFFFFFF MUL NOT AND SWAP1 DUP4 PUSH20 0xFFFFFFFFFFFFFFFFFFFFFFFFFFFFFFFFFFFFFFFF AND MUL OR SWAP1 SSTORE POP JUMPDEST DUP1 DUP1 PUSH2 0x64B SWAP1 PUSH2 0xD39 JUMP JUMPDEST SWAP2 POP POP PUSH2 0x498 JUMP JUMPDEST POP JUMP JUMPDEST PUSH2 0x65F DUP2 PUSH2 0x90E JUMP JUMPDEST PUSH2 0x69E JUMPI PUSH1 0x40 MLOAD PUSH32 0x8C379A000000000000000000000000000000000000000000000000000000000 DUP2 MSTORE PUSH1 0x4 ADD PUSH2 0x695 SWAP1 PUSH2 0xC2C JUMP JUMPDEST PUSH1 0x40 MLOAD DUP1 SWAP2 SUB SWAP1 REVERT JUMPDEST PUSH1 0x1 PUSH1 0x2 DUP2 GT ISZERO PUSH2 0x6B2 JUMPI PUSH2 0x6B1 PUSH2 0x9A8 JUMP JUMPDEST JUMPDEST PUSH1 0x5 PUSH0 SWAP1 SLOAD SWAP1 PUSH2 0x100 EXP SWAP1 DIV PUSH1 0xFF AND PUSH1 0x2 DUP2 GT ISZERO PUSH2 0x6D3 JUMPI PUSH2 0x6D2 PUSH2 0x9A8 JUMP JUMPDEST JUMPDEST EQ PUSH2 0x713 JUMPI PUSH1 0x40 MLOAD PUSH32 0x8C379A000000000000000000000000000000000000000000000000000000000 DUP2 MSTORE PUSH1 0x4 ADD PUSH2 0x70A SWAP1 PUSH2 0xDCA JUMP JUMPDEST PUSH1 0x40 MLOAD DUP1 SWAP2 SUB SWAP1 REVERT JUMPDEST PUSH1 0x1 PUSH1 0x2 PUSH0 DUP4 PUSH20 0xFFFFFFFFFFFFFFFFFFFFFFFFFFFFFFFFFFFFFFFF AND PUSH20 0xFFFFFFFFFFFFFFFFFFFFFFFFFFFFFFFFFFFFFFFF AND DUP2 MSTORE PUSH1 0x20 ADD SWAP1 DUP2 MSTORE PUSH1 0x20 ADD PUSH0 KECCAK256 PUSH0 SWAP1 SLOAD SWAP1 PUSH2 0x100 EXP SWAP1 DIV PUSH1 0xFF AND PUSH2 0x769 SWAP2 SWAP1 PUSH2 0xDE8 JUMP JUMPDEST PUSH1 0x2 PUSH0 DUP4 PUSH20 0xFFFFFFFFFFFFFFFFFFFFFFFFFFFFFFFFFFFFFFFF AND PUSH20 0xFFFFFFFFFFFFFFFFFFFFFFFFFFFFFFFFFFFFFFFF AND DUP2 MSTORE PUSH1 0x20 ADD SWAP1 DUP2 MSTORE PUSH1 0x20 ADD PUSH0 KECCAK256 PUSH0 PUSH2 0x100 EXP DUP2 SLOAD DUP2 PUSH1 0xFF MUL NOT AND SWAP1 DUP4 PUSH1 0xFF AND MUL OR SWAP1 SSTORE POP POP JUMP JUMPDEST PUSH1 0x4 SLOAD DUP2 JUMP JUMPDEST PUSH0 DUP1 SLOAD SWAP1 PUSH2 0x100 EXP SWAP1 DIV PUSH20 0xFFFFFFFFFFFFFFFFFFFFFFFFFFFFFFFFFFFFFFFF AND PUSH20 0xFFFFFFFFFFFFFFFFFFFFFFFFFFFFFFFFFFFFFFFF AND CALLER PUSH20 0xFFFFFFFFFFFFFFFFFFFFFFFFFFFFFFFFFFFFFFFF AND SUB PUSH2 0x8AC JUMPI PUSH1 0x2 DUP1 DUP2 GT ISZERO PUSH2 0x82B JUMPI PUSH2 0x82A PUSH2 0x9A8 JUMP JUMPDEST JUMPDEST PUSH1 0x5 PUSH0 SWAP1 SLOAD SWAP1 PUSH2 0x100 EXP SWAP1 DIV PUSH1 0xFF AND PUSH1 0x2 DUP2 GT ISZERO PUSH2 0x84C JUMPI PUSH2 0x84B PUSH2 0x9A8 JUMP JUMPDEST JUMPDEST EQ PUSH2 0x880 JUMPI PUSH1 0x1 PUSH1 0x5 PUSH0 PUSH2 0x100 EXP DUP2 SLOAD DUP2 PUSH1 0xFF MUL NOT AND SWAP1 DUP4 PUSH1 0x2 DUP2 GT ISZERO PUSH2 0x876 JUMPI PUSH2 0x875 PUSH2 0x9A8 JUMP JUMPDEST JUMPDEST MUL OR SWAP1 SSTORE POP PUSH2 0x8AB JUMP JUMPDEST PUSH1 0x2 PUSH1 0x5 PUSH0 PUSH2 0x100 EXP DUP2 SLOAD DUP2 PUSH1 0xFF MUL NOT AND SWAP1 DUP4 PUSH1 0x2 DUP2 GT ISZERO PUSH2 0x8A5 JUMPI PUSH2 0x8A4 PUSH2 0x9A8 JUMP JUMPDEST JUMPDEST MUL OR SWAP1 SSTORE POP JUMPDEST JUMPDEST JUMP JUMPDEST PUSH1 0x3 PUSH0 SWAP1 SLOAD SWAP1 PUSH2 0x100 EXP SWAP1 DIV PUSH20 0xFFFFFFFFFFFFFFFFFFFFFFFFFFFFFFFFFFFFFFFF AND DUP2 JUMP JUMPDEST PUSH1 0x1 DUP2 DUP2 SLOAD DUP2 LT PUSH2 0x8E2 JUMPI PUSH0 DUP1 REVERT JUMPDEST SWAP1 PUSH0 MSTORE PUSH1 0x20 PUSH0 KECCAK256 ADD PUSH0 SWAP2 POP SLOAD SWAP1 PUSH2 0x100 EXP SWAP1 DIV PUSH20 0xFFFFFFFFFFFFFFFFFFFFFFFFFFFFFFFFFFFFFFFF AND DUP2 JUMP JUMPDEST PUSH0 DUP1 PUSH0 SWAP1 POP PUSH1 0x1 DUP1 SLOAD SWAP1 POP DUP2 LT ISZERO PUSH2 0x9A1 JUMPI DUP3 PUSH20 0xFFFFFFFFFFFFFFFFFFFFFFFFFFFFFFFFFFFFFFFF AND PUSH1 0x1 DUP3 DUP2 SLOAD DUP2 LT PUSH2 0x94B JUMPI PUSH2 0x94A PUSH2 0xCDF JUMP JUMPDEST JUMPDEST SWAP1 PUSH0 MSTORE PUSH1 0x20 PUSH0 KECCAK256 ADD PUSH0 SWAP1 SLOAD SWAP1 PUSH2 0x100 EXP SWAP1 DIV PUSH20 0xFFFFFFFFFFFFFFFFFFFFFFFFFFFFFFFFFFFFFFFF AND PUSH20 0xFFFFFFFFFFFFFFFFFFFFFFFFFFFFFFFFFFFFFFFF AND SUB PUSH2 0x998 JUMPI PUSH1 0x1 SWAP2 POP POP PUSH2 0x9A3 JUMP JUMPDEST PUSH0 SWAP2 POP POP PUSH2 0x9A3 JUMP JUMPDEST POP JUMPDEST SWAP2 SWAP1 POP JUMP JUMPDEST PUSH32 0x4E487B7100000000000000000000000000000000000000000000000000000000 PUSH0 MSTORE PUSH1 0x21 PUSH1 0x4 MSTORE PUSH1 0x24 PUSH0 REVERT JUMPDEST PUSH1 0x3 DUP2 LT PUSH2 0x9E6 JUMPI PUSH2 0x9E5 PUSH2 0x9A8 JUMP JUMPDEST JUMPDEST POP JUMP JUMPDEST PUSH0 DUP2 SWAP1 POP PUSH2 0x9F6 DUP3 PUSH2 0x9D5 JUMP JUMPDEST SWAP2 SWAP1 POP JUMP JUMPDEST PUSH0 PUSH2 0xA05 DUP3 PUSH2 0x9E9 JUMP JUMPDEST SWAP1 POP SWAP2 SWAP1 POP JUMP JUMPDEST PUSH2 0xA15 DUP2 PUSH2 0x9FB JUMP JUMPDEST DUP3 MSTORE POP POP JUMP JUMPDEST PUSH0 PUSH1 0x20 DUP3 ADD SWAP1 POP PUSH2 0xA2E PUSH0 DUP4 ADD DUP5 PUSH2 0xA0C JUMP JUMPDEST SWAP3 SWAP2 POP POP JUMP JUMPDEST PUSH0 DUP1 REVERT JUMPDEST PUSH0 PUSH20 0xFFFFFFFFFFFFFFFFFFFFFFFFFFFFFFFFFFFFFFFF DUP3 AND SWAP1 POP SWAP2 SWAP1 POP JUMP JUMPDEST PUSH0 PUSH2 0xA61 DUP3 PUSH2 0xA38 JUMP JUMPDEST SWAP1 POP SWAP2 SWAP1 POP JUMP JUMPDEST PUSH2 0xA71 DUP2 PUSH2 0xA57 JUMP JUMPDEST DUP2 EQ PUSH2 0xA7B JUMPI PUSH0 DUP1 REVERT JUMPDEST POP JUMP JUMPDEST PUSH0 DUP2 CALLDATALOAD SWAP1 POP PUSH2 0xA8C DUP2 PUSH2 0xA68 JUMP JUMPDEST SWAP3 SWAP2 POP POP JUMP JUMPDEST PUSH0 PUSH1 0x20 DUP3 DUP5 SUB SLT ISZERO PUSH2 0xAA7 JUMPI PUSH2 0xAA6 PUSH2 0xA34 JUMP JUMPDEST JUMPDEST PUSH0 PUSH2 0xAB4 DUP5 DUP3 DUP6 ADD PUSH2 0xA7E JUMP JUMPDEST SWAP2 POP POP SWAP3 SWAP2 POP POP JUMP JUMPDEST PUSH0 DUP2 SWAP1 POP SWAP2 SWAP1 POP JUMP JUMPDEST PUSH2 0xACF DUP2 PUSH2 0xABD JUMP JUMPDEST DUP3 MSTORE POP POP JUMP JUMPDEST PUSH0 PUSH1 0x20 DUP3 ADD SWAP1 POP PUSH2 0xAE8 PUSH0 DUP4 ADD DUP5 PUSH2 0xAC6 JUMP JUMPDEST SWAP3 SWAP2 POP POP JUMP JUMPDEST PUSH0 PUSH1 0xFF DUP3 AND SWAP1 POP SWAP2 SWAP1 POP JUMP JUMPDEST PUSH2 0xB03 DUP2 PUSH2 0xAEE JUMP JUMPDEST DUP3 MSTORE POP POP JUMP JUMPDEST PUSH0 PUSH1 0x20 DUP3 ADD SWAP1 POP PUSH2 0xB1C PUSH0 DUP4 ADD DUP5 PUSH2 0xAFA JUMP JUMPDEST SWAP3 SWAP2 POP POP JUMP JUMPDEST PUSH2 0xB2B DUP2 PUSH2 0xA57 JUMP JUMPDEST DUP3 MSTORE POP POP JUMP JUMPDEST PUSH0 PUSH1 0x20 DUP3 ADD SWAP1 POP PUSH2 0xB44 PUSH0 DUP4 ADD DUP5 PUSH2 0xB22 JUMP JUMPDEST SWAP3 SWAP2 POP POP JUMP JUMPDEST PUSH2 0xB53 DUP2 PUSH2 0xABD JUMP JUMPDEST DUP2 EQ PUSH2 0xB5D JUMPI PUSH0 DUP1 REVERT JUMPDEST POP JUMP JUMPDEST PUSH0 DUP2 CALLDATALOAD SWAP1 POP PUSH2 0xB6E DUP2 PUSH2 0xB4A JUMP JUMPDEST SWAP3 SWAP2 POP POP JUMP JUMPDEST PUSH0 PUSH1 0x20 DUP3 DUP5 SUB SLT ISZERO PUSH2 0xB89 JUMPI PUSH2 0xB88 PUSH2 0xA34 JUMP JUMPDEST JUMPDEST PUSH0 PUSH2 0xB96 DUP5 DUP3 DUP6 ADD PUSH2 0xB60 JUMP JUMPDEST SWAP2 POP POP SWAP3 SWAP2 POP POP JUMP JUMPDEST PUSH0 DUP2 ISZERO ISZERO SWAP1 POP SWAP2 SWAP1 POP JUMP JUMPDEST PUSH2 0xBB3 DUP2 PUSH2 0xB9F JUMP JUMPDEST DUP3 MSTORE POP POP JUMP JUMPDEST PUSH0 PUSH1 0x20 DUP3 ADD SWAP1 POP PUSH2 0xBCC PUSH0 DUP4 ADD DUP5 PUSH2 0xBAA JUMP JUMPDEST SWAP3 SWAP2 POP POP JUMP JUMPDEST PUSH0 DUP3 DUP3 MSTORE PUSH1 0x20 DUP3 ADD SWAP1 POP SWAP3 SWAP2 POP POP JUMP JUMPDEST PUSH32 0x6E6F742076616C69646174652063616E64696461746573000000000000000000 PUSH0 DUP3 ADD MSTORE POP JUMP JUMPDEST PUSH0 PUSH2 0xC16 PUSH1 0x17 DUP4 PUSH2 0xBD2 JUMP JUMPDEST SWAP2 POP PUSH2 0xC21 DUP3 PUSH2 0xBE2 JUMP JUMPDEST PUSH1 0x20 DUP3 ADD SWAP1 POP SWAP2 SWAP1 POP JUMP JUMPDEST PUSH0 PUSH1 0x20 DUP3 ADD SWAP1 POP DUP2 DUP2 SUB PUSH0 DUP4 ADD MSTORE PUSH2 0xC43 DUP2 PUSH2 0xC0A JUMP JUMPDEST SWAP1 POP SWAP2 SWAP1 POP JUMP JUMPDEST PUSH32 0x4E487B7100000000000000000000000000000000000000000000000000000000 PUSH0 MSTORE PUSH1 0x1 PUSH1 0x4 MSTORE PUSH1 0x24 PUSH0 REVERT JUMPDEST PUSH32 0x656C656374696F6E206973206E6F7420636F6D706C6574656400000000000000 PUSH0 DUP3 ADD MSTORE POP JUMP JUMPDEST PUSH0 PUSH2 0xCAB PUSH1 0x19 DUP4 PUSH2 0xBD2 JUMP JUMPDEST SWAP2 POP PUSH2 0xCB6 DUP3 PUSH2 0xC77 JUMP JUMPDEST PUSH1 0x20 DUP3 ADD SWAP1 POP SWAP2 SWAP1 POP JUMP JUMPDEST PUSH0 PUSH1 0x20 DUP3 ADD SWAP1 POP DUP2 DUP2 SUB PUSH0 DUP4 ADD MSTORE PUSH2 0xCD8 DUP2 PUSH2 0xC9F JUMP JUMPDEST SWAP1 POP SWAP2 SWAP1 POP JUMP JUMPDEST PUSH32 0x4E487B7100000000000000000000000000000000000000000000000000000000 PUSH0 MSTORE PUSH1 0x32 PUSH1 0x4 MSTORE PUSH1 0x24 PUSH0 REVERT JUMPDEST PUSH32 0x4E487B7100000000000000000000000000000000000000000000000000000000 PUSH0 MSTORE PUSH1 0x11 PUSH1 0x4 MSTORE PUSH1 0x24 PUSH0 REVERT JUMPDEST PUSH0 PUSH2 0xD43 DUP3 PUSH2 0xABD JUMP JUMPDEST SWAP2 POP PUSH32 0xFFFFFFFFFFFFFFFFFFFFFFFFFFFFFFFFFFFFFFFFFFFFFFFFFFFFFFFFFFFFFFFF DUP3 SUB PUSH2 0xD75 JUMPI PUSH2 0xD74 PUSH2 0xD0C JUMP JUMPDEST JUMPDEST PUSH1 0x1 DUP3 ADD SWAP1 POP SWAP2 SWAP1 POP JUMP JUMPDEST PUSH32 0x656C656374696F6E206973206E6F742061637469766500000000000000000000 PUSH0 DUP3 ADD MSTORE POP JUMP JUMPDEST PUSH0 PUSH2 0xDB4 PUSH1 0x16 DUP4 PUSH2 0xBD2 JUMP JUMPDEST SWAP2 POP PUSH2 0xDBF DUP3 PUSH2 0xD80 JUMP JUMPDEST PUSH1 0x20 DUP3 ADD SWAP1 POP SWAP2 SWAP1 POP JUMP JUMPDEST PUSH0 PUSH1 0x20 DUP3 ADD SWAP1 POP DUP2 DUP2 SUB PUSH0 DUP4 ADD MSTORE PUSH2 0xDE1 DUP2 PUSH2 0xDA8 JUMP JUMPDEST SWAP1 POP SWAP2 SWAP1 POP JUMP JUMPDEST PUSH0 PUSH2 0xDF2 DUP3 PUSH2 0xAEE JUMP JUMPDEST SWAP2 POP PUSH2 0xDFD DUP4 PUSH2 0xAEE JUMP JUMPDEST SWAP3 POP DUP3 DUP3 ADD SWAP1 POP PUSH1 0xFF DUP2 GT ISZERO PUSH2 0xE16 JUMPI PUSH2 0xE15 PUSH2 0xD0C JUMP JUMPDEST JUMPDEST SWAP3 SWAP2 POP POP JUMP INVALID LOG2 PUSH5 0x6970667358 0x22 SLT KECCAK256 BALANCE 0xDA 0x24 CREATE DUP8 PUSH14 0x765FF677E0ED9E3AF1A2B8F04FB8 SWAP16 0xE2 SWAP13 ORIGIN 0x21 0xFB PUSH10 0xE6949492B764736F6C63 NUMBER STOP ADDMOD ISZERO STOP CALLER "
				},
				"gasEstimates": {
					"creation": {
						"codeDepositCost": "733200",
						"executionCost": "25029",
						"totalCost": "758229"
					},
					"external": {
						"candidateslist(uint256)": "5032",
						"contractowner()": "2594",
						"registercandidates(address)": "51236",
						"result()": "infinite",
						"satuts()": "2555",
						"setsatuts()": "28860",
						"validatecandidates(address)": "7261",
						"vote(address)": "7294",
						"voterecived(address)": "2900",
						"votescount(address)": "7319",
						"winer()": "2574",
						"winervote()": "2447"
					}
				},
				"methodIdentifiers": {
					"candidateslist(uint256)": "d8d4c926",
					"contractowner()": "6098c94c",
					"registercandidates(address)": "3a6697b5",
					"result()": "65372147",
					"satuts()": "071a9cd6",
					"setsatuts()": "8b2b429c",
					"validatecandidates(address)": "ef2eb328",
					"vote(address)": "6dd7d8ea",
					"voterecived(address)": "4e68c18c",
					"votescount(address)": "0d934743",
					"winer()": "d426b5d4",
					"winervote()": "759ece88"
				}
			},
			"storageLayout": {
				"storage": [
					{
						"astId": 3,
						"contract": "vottind/voting.sol:voting",
						"label": "contractowner",
						"offset": 0,
						"slot": "0",
						"type": "t_address"
					},
					{
						"astId": 6,
						"contract": "vottind/voting.sol:voting",
						"label": "candidateslist",
						"offset": 0,
						"slot": "1",
						"type": "t_array(t_address)dyn_storage"
					},
					{
						"astId": 10,
						"contract": "vottind/voting.sol:voting",
						"label": "voterecived",
						"offset": 0,
						"slot": "2",
						"type": "t_mapping(t_address,t_uint8)"
					},
					{
						"astId": 12,
						"contract": "vottind/voting.sol:voting",
						"label": "winer",
						"offset": 0,
						"slot": "3",
						"type": "t_address"
					},
					{
						"astId": 14,
						"contract": "vottind/voting.sol:voting",
						"label": "winervote",
						"offset": 0,
						"slot": "4",
						"type": "t_uint256"
					},
					{
						"astId": 21,
						"contract": "vottind/voting.sol:voting",
						"label": "satuts",
						"offset": 0,
						"slot": "5",
						"type": "t_enum(votingsatuts)18"
					}
				],
				"types": {
					"t_address": {
						"encoding": "inplace",
						"label": "address",
						"numberOfBytes": "20"
					},
					"t_array(t_address)dyn_storage": {
						"base": "t_address",
						"encoding": "dynamic_array",
						"label": "address[]",
						"numberOfBytes": "32"
					},
					"t_enum(votingsatuts)18": {
						"encoding": "inplace",
						"label": "enum voting.votingsatuts",
						"numberOfBytes": "1"
					},
					"t_mapping(t_address,t_uint8)": {
						"encoding": "mapping",
						"key": "t_address",
						"label": "mapping(address => uint8)",
						"numberOfBytes": "32",
						"value": "t_uint8"
					},
					"t_uint256": {
						"encoding": "inplace",
						"label": "uint256",
						"numberOfBytes": "32"
					},
					"t_uint8": {
						"encoding": "inplace",
						"label": "uint8",
						"numberOfBytes": "1"
					}
				}
			},
			"userdoc": {
				"kind": "user",
				"methods": {},
				"version": 1
			}
		}
	}
}