{
	"contract/carrent.sol": {
		"carrent": {
			"abi": [
				{
					"inputs": [],
					"stateMutability": "nonpayable",
					"type": "constructor"
				},
				{
					"anonymous": false,
					"inputs": [
						{
							"indexed": false,
							"internalType": "address",
							"name": "_customer",
							"type": "address"
						},
						{
							"indexed": false,
							"internalType": "uint256",
							"name": "_amount",
							"type": "uint256"
						}
					],
					"name": "rented",
					"type": "event"
				},
				{
					"inputs": [],
					"name": "carowner",
					"outputs": [
						{
							"internalType": "address payable",
							"name": "",
							"type": "address"
						}
					],
					"stateMutability": "view",
					"type": "function"
				},
				{
					"inputs": [],
					"name": "getcondition",
					"outputs": [
						{
							"internalType": "enum carrent.carrentconditions",
							"name": "",
							"type": "uint8"
						}
					],
					"stateMutability": "view",
					"type": "function"
				},
				{
					"inputs": [],
					"name": "rentcar",
					"outputs": [],
					"stateMutability": "payable",
					"type": "function"
				},
				{
					"inputs": [],
					"name": "returncar",
					"outputs": [],
					"stateMutability": "nonpayable",
					"type": "function"
				},
				{
					"stateMutability": "payable",
					"type": "receive"
				}
			],
			"devdoc": {
				"kind": "dev",
				"methods": {},
				"version": 1
			},
			"evm": {
				"assembly": "    /* \"contract/carrent.sol\":64:1162  contract carrent{... */\n  mstore(0x40, 0x80)\n    /* \"contract/carrent.sol\":496:598  constructor(){... */\n  callvalue\n  dup1\n  iszero\n  tag_1\n  jumpi\n  0x00\n  dup1\n  revert\ntag_1:\n  pop\n    /* \"contract/carrent.sol\":537:547  msg.sender */\n  caller\n    /* \"contract/carrent.sol\":520:528  carowner */\n  0x00\n  dup1\n    /* \"contract/carrent.sol\":520:548  carowner=payable(msg.sender) */\n  0x0100\n  exp\n  dup2\n  sload\n  dup2\n  0xffffffffffffffffffffffffffffffffffffffff\n  mul\n  not\n  and\n  swap1\n  dup4\n  0xffffffffffffffffffffffffffffffffffffffff\n  and\n  mul\n  or\n  swap1\n  sstore\n  pop\n    /* \"contract/carrent.sol\":563:590  carrentconditions.Available */\n  0x00\n    /* \"contract/carrent.sol\":559:562  car */\n  dup1\n  0x14\n    /* \"contract/carrent.sol\":559:590  car=carrentconditions.Available */\n  0x0100\n  exp\n  dup2\n  sload\n  dup2\n  0xff\n  mul\n  not\n  and\n  swap1\n  dup4\n  0x01\n  dup2\n  gt\n  iszero\n  tag_4\n  jumpi\n  tag_5\n  tag_6\n  jump\t// in\ntag_5:\ntag_4:\n  mul\n  or\n  swap1\n  sstore\n  pop\n    /* \"contract/carrent.sol\":64:1162  contract carrent{... */\n  jump(tag_7)\n    /* \"#utility.yul\":7:187   */\ntag_6:\n    /* \"#utility.yul\":55:132   */\n  0x4e487b7100000000000000000000000000000000000000000000000000000000\n    /* \"#utility.yul\":52:53   */\n  0x00\n    /* \"#utility.yul\":45:133   */\n  mstore\n    /* \"#utility.yul\":152:156   */\n  0x21\n    /* \"#utility.yul\":149:150   */\n  0x04\n    /* \"#utility.yul\":142:157   */\n  mstore\n    /* \"#utility.yul\":176:180   */\n  0x24\n    /* \"#utility.yul\":173:174   */\n  0x00\n    /* \"#utility.yul\":166:181   */\n  revert\n    /* \"contract/carrent.sol\":64:1162  contract carrent{... */\ntag_7:\n  dataSize(sub_0)\n  dup1\n  dataOffset(sub_0)\n  0x00\n  codecopy\n  0x00\n  return\nstop\n\nsub_0: assembly {\n        /* \"contract/carrent.sol\":64:1162  contract carrent{... */\n      mstore(0x40, 0x80)\n      jumpi(tag_1, lt(calldatasize, 0x04))\n      shr(0xe0, calldataload(0x00))\n      dup1\n      0x1cb5786f\n      eq\n      tag_3\n      jumpi\n      dup1\n      0x77a612bd\n      eq\n      tag_4\n      jumpi\n      dup1\n      0x994cc5a8\n      eq\n      tag_5\n      jumpi\n      dup1\n      0xcc6dcacd\n      eq\n      tag_6\n      jumpi\n      jump(tag_2)\n    tag_1:\n      jumpi(tag_2, calldatasize)\n        /* \"contract/carrent.sol\":297:324  carrentconditions.Available */\n      0x00\n        /* \"contract/carrent.sol\":292:324  car==carrentconditions.Available */\n      0x01\n      dup2\n      gt\n      iszero\n      tag_9\n      jumpi\n      tag_10\n      tag_11\n      jump\t// in\n    tag_10:\n    tag_9:\n        /* \"contract/carrent.sol\":292:295  car */\n      0x00\n      0x14\n      swap1\n      sload\n      swap1\n      0x0100\n      exp\n      swap1\n      div\n      0xff\n      and\n        /* \"contract/carrent.sol\":292:324  car==carrentconditions.Available */\n      0x01\n      dup2\n      gt\n      iszero\n      tag_12\n      jumpi\n      tag_13\n      tag_11\n      jump\t// in\n    tag_13:\n    tag_12:\n      eq\n        /* \"contract/carrent.sol\":284:353  require(car==carrentconditions.Available,\"the car is already rented\") */\n      tag_14\n      jumpi\n      mload(0x40)\n      0x08c379a000000000000000000000000000000000000000000000000000000000\n      dup2\n      mstore\n      0x04\n      add\n      tag_15\n      swap1\n      tag_16\n      jump\t// in\n    tag_15:\n      mload(0x40)\n      dup1\n      swap2\n      sub\n      swap1\n      revert\n    tag_14:\n        /* \"contract/carrent.sol\":1030:1037  2 ether */\n      0x1bc16d674ec80000\n        /* \"contract/carrent.sol\":445:451  _ether */\n      dup1\n        /* \"contract/carrent.sol\":432:441  msg.value */\n      callvalue\n        /* \"contract/carrent.sol\":432:451  msg.value >= _ether */\n      lt\n      iszero\n        /* \"contract/carrent.sol\":424:470  require(msg.value >= _ether, \"not enough ETH\") */\n      tag_18\n      jumpi\n      mload(0x40)\n      0x08c379a000000000000000000000000000000000000000000000000000000000\n      dup2\n      mstore\n      0x04\n      add\n      tag_19\n      swap1\n      tag_20\n      jump\t// in\n    tag_19:\n      mload(0x40)\n      dup1\n      swap2\n      sub\n      swap1\n      revert\n    tag_18:\n        /* \"contract/carrent.sol\":1046:1054  carowner */\n      0x00\n      dup1\n      sload\n      swap1\n      0x0100\n      exp\n      swap1\n      div\n      0xffffffffffffffffffffffffffffffffffffffff\n      and\n        /* \"contract/carrent.sol\":1046:1063  carowner.transfer */\n      0xffffffffffffffffffffffffffffffffffffffff\n      and\n        /* \"contract/carrent.sol\":1046:1074  carowner.transfer(msg.value) */\n      0x08fc\n        /* \"contract/carrent.sol\":1064:1073  msg.value */\n      callvalue\n        /* \"contract/carrent.sol\":1046:1074  carowner.transfer(msg.value) */\n      swap1\n      dup2\n      iszero\n      mul\n      swap1\n      mload(0x40)\n      0x00\n      mload(0x40)\n      dup1\n      dup4\n      sub\n      dup2\n      dup6\n      dup9\n      dup9\n      call\n      swap4\n      pop\n      pop\n      pop\n      pop\n      iszero\n      dup1\n      iszero\n      tag_23\n      jumpi\n      returndatasize\n      0x00\n      dup1\n      returndatacopy\n      revert(0x00, returndatasize)\n    tag_23:\n      pop\n        /* \"contract/carrent.sol\":1086:1110  carrentconditions.rented */\n      0x01\n        /* \"contract/carrent.sol\":1082:1085  car */\n      0x00\n      0x14\n        /* \"contract/carrent.sol\":1082:1110  car=carrentconditions.rented */\n      0x0100\n      exp\n      dup2\n      sload\n      dup2\n      0xff\n      mul\n      not\n      and\n      swap1\n      dup4\n      0x01\n      dup2\n      gt\n      iszero\n      tag_24\n      jumpi\n      tag_25\n      tag_11\n      jump\t// in\n    tag_25:\n    tag_24:\n      mul\n      or\n      swap1\n      sstore\n      pop\n        /* \"contract/carrent.sol\":1123:1151  rented(msg.sender,msg.value) */\n      0x3d8a7aeb1f864aa7aa43662c762d6605a609ee7bf74c2490bd22d20353de9652\n        /* \"contract/carrent.sol\":1130:1140  msg.sender */\n      caller\n        /* \"contract/carrent.sol\":1141:1150  msg.value */\n      callvalue\n        /* \"contract/carrent.sol\":1123:1151  rented(msg.sender,msg.value) */\n      mload(0x40)\n      tag_26\n      swap3\n      swap2\n      swap1\n      tag_27\n      jump\t// in\n    tag_26:\n      mload(0x40)\n      dup1\n      swap2\n      sub\n      swap1\n      log1\n        /* \"contract/carrent.sol\":364:365  _ */\n      stop\n        /* \"contract/carrent.sol\":64:1162  contract carrent{... */\n    tag_2:\n      0x00\n      dup1\n      revert\n        /* \"contract/carrent.sol\":604:694  function getcondition()public view returns(carrentconditions){... */\n    tag_3:\n      callvalue\n      dup1\n      iszero\n      tag_28\n      jumpi\n      0x00\n      dup1\n      revert\n    tag_28:\n      pop\n      tag_29\n      tag_30\n      jump\t// in\n    tag_29:\n      mload(0x40)\n      tag_31\n      swap2\n      swap1\n      tag_32\n      jump\t// in\n    tag_31:\n      mload(0x40)\n      dup1\n      swap2\n      sub\n      swap1\n      return\n        /* \"contract/carrent.sol\":87:118  address payable public carowner */\n    tag_4:\n      callvalue\n      dup1\n      iszero\n      tag_33\n      jumpi\n      0x00\n      dup1\n      revert\n    tag_33:\n      pop\n      tag_34\n      tag_35\n      jump\t// in\n    tag_34:\n      mload(0x40)\n      tag_36\n      swap2\n      swap1\n      tag_37\n      jump\t// in\n    tag_36:\n      mload(0x40)\n      dup1\n      swap2\n      sub\n      swap1\n      return\n        /* \"contract/carrent.sol\":700:888  function rentcar()payable public statutserror paymenterror(2 ether){... */\n    tag_5:\n      tag_38\n      tag_39\n      jump\t// in\n    tag_38:\n      stop\n        /* \"contract/carrent.sol\":894:970  function returncar()public{... */\n    tag_6:\n      callvalue\n      dup1\n      iszero\n      tag_40\n      jumpi\n      0x00\n      dup1\n      revert\n    tag_40:\n      pop\n      tag_41\n      tag_42\n      jump\t// in\n    tag_41:\n      stop\n        /* \"contract/carrent.sol\":604:694  function getcondition()public view returns(carrentconditions){... */\n    tag_30:\n        /* \"contract/carrent.sol\":647:664  carrentconditions */\n      0x00\n        /* \"contract/carrent.sol\":683:686  car */\n      dup1\n      0x14\n      swap1\n      sload\n      swap1\n      0x0100\n      exp\n      swap1\n      div\n      0xff\n      and\n        /* \"contract/carrent.sol\":676:686  return car */\n      swap1\n      pop\n        /* \"contract/carrent.sol\":604:694  function getcondition()public view returns(carrentconditions){... */\n      swap1\n      jump\t// out\n        /* \"contract/carrent.sol\":87:118  address payable public carowner */\n    tag_35:\n      0x00\n      dup1\n      sload\n      swap1\n      0x0100\n      exp\n      swap1\n      div\n      0xffffffffffffffffffffffffffffffffffffffff\n      and\n      dup2\n      jump\t// out\n        /* \"contract/carrent.sol\":700:888  function rentcar()payable public statutserror paymenterror(2 ether){... */\n    tag_39:\n        /* \"contract/carrent.sol\":297:324  carrentconditions.Available */\n      0x00\n        /* \"contract/carrent.sol\":292:324  car==carrentconditions.Available */\n      0x01\n      dup2\n      gt\n      iszero\n      tag_45\n      jumpi\n      tag_46\n      tag_11\n      jump\t// in\n    tag_46:\n    tag_45:\n        /* \"contract/carrent.sol\":292:295  car */\n      0x00\n      0x14\n      swap1\n      sload\n      swap1\n      0x0100\n      exp\n      swap1\n      div\n      0xff\n      and\n        /* \"contract/carrent.sol\":292:324  car==carrentconditions.Available */\n      0x01\n      dup2\n      gt\n      iszero\n      tag_47\n      jumpi\n      tag_48\n      tag_11\n      jump\t// in\n    tag_48:\n    tag_47:\n      eq\n        /* \"contract/carrent.sol\":284:353  require(car==carrentconditions.Available,\"the car is already rented\") */\n      tag_49\n      jumpi\n      mload(0x40)\n      0x08c379a000000000000000000000000000000000000000000000000000000000\n      dup2\n      mstore\n      0x04\n      add\n      tag_50\n      swap1\n      tag_16\n      jump\t// in\n    tag_50:\n      mload(0x40)\n      dup1\n      swap2\n      sub\n      swap1\n      revert\n    tag_49:\n        /* \"contract/carrent.sol\":759:766  2 ether */\n      0x1bc16d674ec80000\n        /* \"contract/carrent.sol\":445:451  _ether */\n      dup1\n        /* \"contract/carrent.sol\":432:441  msg.value */\n      callvalue\n        /* \"contract/carrent.sol\":432:451  msg.value >= _ether */\n      lt\n      iszero\n        /* \"contract/carrent.sol\":424:470  require(msg.value >= _ether, \"not enough ETH\") */\n      tag_52\n      jumpi\n      mload(0x40)\n      0x08c379a000000000000000000000000000000000000000000000000000000000\n      dup2\n      mstore\n      0x04\n      add\n      tag_53\n      swap1\n      tag_20\n      jump\t// in\n    tag_53:\n      mload(0x40)\n      dup1\n      swap2\n      sub\n      swap1\n      revert\n    tag_52:\n        /* \"contract/carrent.sol\":775:783  carowner */\n      0x00\n      dup1\n      sload\n      swap1\n      0x0100\n      exp\n      swap1\n      div\n      0xffffffffffffffffffffffffffffffffffffffff\n      and\n        /* \"contract/carrent.sol\":775:792  carowner.transfer */\n      0xffffffffffffffffffffffffffffffffffffffff\n      and\n        /* \"contract/carrent.sol\":775:803  carowner.transfer(msg.value) */\n      0x08fc\n        /* \"contract/carrent.sol\":793:802  msg.value */\n      callvalue\n        /* \"contract/carrent.sol\":775:803  carowner.transfer(msg.value) */\n      swap1\n      dup2\n      iszero\n      mul\n      swap1\n      mload(0x40)\n      0x00\n      mload(0x40)\n      dup1\n      dup4\n      sub\n      dup2\n      dup6\n      dup9\n      dup9\n      call\n      swap4\n      pop\n      pop\n      pop\n      pop\n      iszero\n      dup1\n      iszero\n      tag_56\n      jumpi\n      returndatasize\n      0x00\n      dup1\n      returndatacopy\n      revert(0x00, returndatasize)\n    tag_56:\n      pop\n        /* \"contract/carrent.sol\":815:839  carrentconditions.rented */\n      0x01\n        /* \"contract/carrent.sol\":811:814  car */\n      0x00\n      0x14\n        /* \"contract/carrent.sol\":811:839  car=carrentconditions.rented */\n      0x0100\n      exp\n      dup2\n      sload\n      dup2\n      0xff\n      mul\n      not\n      and\n      swap1\n      dup4\n      0x01\n      dup2\n      gt\n      iszero\n      tag_57\n      jumpi\n      tag_58\n      tag_11\n      jump\t// in\n    tag_58:\n    tag_57:\n      mul\n      or\n      swap1\n      sstore\n      pop\n        /* \"contract/carrent.sol\":852:880  rented(msg.sender,msg.value) */\n      0x3d8a7aeb1f864aa7aa43662c762d6605a609ee7bf74c2490bd22d20353de9652\n        /* \"contract/carrent.sol\":859:869  msg.sender */\n      caller\n        /* \"contract/carrent.sol\":870:879  msg.value */\n      callvalue\n        /* \"contract/carrent.sol\":852:880  rented(msg.sender,msg.value) */\n      mload(0x40)\n      tag_59\n      swap3\n      swap2\n      swap1\n      tag_27\n      jump\t// in\n    tag_59:\n      mload(0x40)\n      dup1\n      swap2\n      sub\n      swap1\n      log1\n        /* \"contract/carrent.sol\":364:365  _ */\n      pop\n        /* \"contract/carrent.sol\":700:888  function rentcar()payable public statutserror paymenterror(2 ether){... */\n      jump\t// out\n        /* \"contract/carrent.sol\":894:970  function returncar()public{... */\n    tag_42:\n        /* \"contract/carrent.sol\":935:962  carrentconditions.Available */\n      0x00\n        /* \"contract/carrent.sol\":931:934  car */\n      dup1\n      0x14\n        /* \"contract/carrent.sol\":931:962  car=carrentconditions.Available */\n      0x0100\n      exp\n      dup2\n      sload\n      dup2\n      0xff\n      mul\n      not\n      and\n      swap1\n      dup4\n      0x01\n      dup2\n      gt\n      iszero\n      tag_61\n      jumpi\n      tag_62\n      tag_11\n      jump\t// in\n    tag_62:\n    tag_61:\n      mul\n      or\n      swap1\n      sstore\n      pop\n        /* \"contract/carrent.sol\":894:970  function returncar()public{... */\n      jump\t// out\n        /* \"#utility.yul\":7:187   */\n    tag_11:\n        /* \"#utility.yul\":55:132   */\n      0x4e487b7100000000000000000000000000000000000000000000000000000000\n        /* \"#utility.yul\":52:53   */\n      0x00\n        /* \"#utility.yul\":45:133   */\n      mstore\n        /* \"#utility.yul\":152:156   */\n      0x21\n        /* \"#utility.yul\":149:150   */\n      0x04\n        /* \"#utility.yul\":142:157   */\n      mstore\n        /* \"#utility.yul\":176:180   */\n      0x24\n        /* \"#utility.yul\":173:174   */\n      0x00\n        /* \"#utility.yul\":166:181   */\n      revert\n        /* \"#utility.yul\":193:362   */\n    tag_63:\n        /* \"#utility.yul\":277:288   */\n      0x00\n        /* \"#utility.yul\":311:317   */\n      dup3\n        /* \"#utility.yul\":306:309   */\n      dup3\n        /* \"#utility.yul\":299:318   */\n      mstore\n        /* \"#utility.yul\":351:355   */\n      0x20\n        /* \"#utility.yul\":346:349   */\n      dup3\n        /* \"#utility.yul\":342:356   */\n      add\n        /* \"#utility.yul\":327:356   */\n      swap1\n      pop\n        /* \"#utility.yul\":193:362   */\n      swap3\n      swap2\n      pop\n      pop\n      jump\t// out\n        /* \"#utility.yul\":368:543   */\n    tag_64:\n        /* \"#utility.yul\":508:535   */\n      0x7468652063617220697320616c72656164792072656e74656400000000000000\n        /* \"#utility.yul\":504:505   */\n      0x00\n        /* \"#utility.yul\":496:502   */\n      dup3\n        /* \"#utility.yul\":492:506   */\n      add\n        /* \"#utility.yul\":485:536   */\n      mstore\n        /* \"#utility.yul\":368:543   */\n      pop\n      jump\t// out\n        /* \"#utility.yul\":549:915   */\n    tag_65:\n        /* \"#utility.yul\":691:694   */\n      0x00\n        /* \"#utility.yul\":712:779   */\n      tag_84\n        /* \"#utility.yul\":776:778   */\n      0x19\n        /* \"#utility.yul\":771:774   */\n      dup4\n        /* \"#utility.yul\":712:779   */\n      tag_63\n      jump\t// in\n    tag_84:\n        /* \"#utility.yul\":705:779   */\n      swap2\n      pop\n        /* \"#utility.yul\":788:881   */\n      tag_85\n        /* \"#utility.yul\":877:880   */\n      dup3\n        /* \"#utility.yul\":788:881   */\n      tag_64\n      jump\t// in\n    tag_85:\n        /* \"#utility.yul\":906:908   */\n      0x20\n        /* \"#utility.yul\":901:904   */\n      dup3\n        /* \"#utility.yul\":897:909   */\n      add\n        /* \"#utility.yul\":890:909   */\n      swap1\n      pop\n        /* \"#utility.yul\":549:915   */\n      swap2\n      swap1\n      pop\n      jump\t// out\n        /* \"#utility.yul\":921:1340   */\n    tag_16:\n        /* \"#utility.yul\":1087:1091   */\n      0x00\n        /* \"#utility.yul\":1125:1127   */\n      0x20\n        /* \"#utility.yul\":1114:1123   */\n      dup3\n        /* \"#utility.yul\":1110:1128   */\n      add\n        /* \"#utility.yul\":1102:1128   */\n      swap1\n      pop\n        /* \"#utility.yul\":1174:1183   */\n      dup2\n        /* \"#utility.yul\":1168:1172   */\n      dup2\n        /* \"#utility.yul\":1164:1184   */\n      sub\n        /* \"#utility.yul\":1160:1161   */\n      0x00\n        /* \"#utility.yul\":1149:1158   */\n      dup4\n        /* \"#utility.yul\":1145:1162   */\n      add\n        /* \"#utility.yul\":1138:1185   */\n      mstore\n        /* \"#utility.yul\":1202:1333   */\n      tag_87\n        /* \"#utility.yul\":1328:1332   */\n      dup2\n        /* \"#utility.yul\":1202:1333   */\n      tag_65\n      jump\t// in\n    tag_87:\n        /* \"#utility.yul\":1194:1333   */\n      swap1\n      pop\n        /* \"#utility.yul\":921:1340   */\n      swap2\n      swap1\n      pop\n      jump\t// out\n        /* \"#utility.yul\":1346:1510   */\n    tag_66:\n        /* \"#utility.yul\":1486:1502   */\n      0x6e6f7420656e6f75676820455448000000000000000000000000000000000000\n        /* \"#utility.yul\":1482:1483   */\n      0x00\n        /* \"#utility.yul\":1474:1480   */\n      dup3\n        /* \"#utility.yul\":1470:1484   */\n      add\n        /* \"#utility.yul\":1463:1503   */\n      mstore\n        /* \"#utility.yul\":1346:1510   */\n      pop\n      jump\t// out\n        /* \"#utility.yul\":1516:1882   */\n    tag_67:\n        /* \"#utility.yul\":1658:1661   */\n      0x00\n        /* \"#utility.yul\":1679:1746   */\n      tag_90\n        /* \"#utility.yul\":1743:1745   */\n      0x0e\n        /* \"#utility.yul\":1738:1741   */\n      dup4\n        /* \"#utility.yul\":1679:1746   */\n      tag_63\n      jump\t// in\n    tag_90:\n        /* \"#utility.yul\":1672:1746   */\n      swap2\n      pop\n        /* \"#utility.yul\":1755:1848   */\n      tag_91\n        /* \"#utility.yul\":1844:1847   */\n      dup3\n        /* \"#utility.yul\":1755:1848   */\n      tag_66\n      jump\t// in\n    tag_91:\n        /* \"#utility.yul\":1873:1875   */\n      0x20\n        /* \"#utility.yul\":1868:1871   */\n      dup3\n        /* \"#utility.yul\":1864:1876   */\n      add\n        /* \"#utility.yul\":1857:1876   */\n      swap1\n      pop\n        /* \"#utility.yul\":1516:1882   */\n      swap2\n      swap1\n      pop\n      jump\t// out\n        /* \"#utility.yul\":1888:2307   */\n    tag_20:\n        /* \"#utility.yul\":2054:2058   */\n      0x00\n        /* \"#utility.yul\":2092:2094   */\n      0x20\n        /* \"#utility.yul\":2081:2090   */\n      dup3\n        /* \"#utility.yul\":2077:2095   */\n      add\n        /* \"#utility.yul\":2069:2095   */\n      swap1\n      pop\n        /* \"#utility.yul\":2141:2150   */\n      dup2\n        /* \"#utility.yul\":2135:2139   */\n      dup2\n        /* \"#utility.yul\":2131:2151   */\n      sub\n        /* \"#utility.yul\":2127:2128   */\n      0x00\n        /* \"#utility.yul\":2116:2125   */\n      dup4\n        /* \"#utility.yul\":2112:2129   */\n      add\n        /* \"#utility.yul\":2105:2152   */\n      mstore\n        /* \"#utility.yul\":2169:2300   */\n      tag_93\n        /* \"#utility.yul\":2295:2299   */\n      dup2\n        /* \"#utility.yul\":2169:2300   */\n      tag_67\n      jump\t// in\n    tag_93:\n        /* \"#utility.yul\":2161:2300   */\n      swap1\n      pop\n        /* \"#utility.yul\":1888:2307   */\n      swap2\n      swap1\n      pop\n      jump\t// out\n        /* \"#utility.yul\":2313:2439   */\n    tag_68:\n        /* \"#utility.yul\":2350:2357   */\n      0x00\n        /* \"#utility.yul\":2390:2432   */\n      0xffffffffffffffffffffffffffffffffffffffff\n        /* \"#utility.yul\":2383:2388   */\n      dup3\n        /* \"#utility.yul\":2379:2433   */\n      and\n        /* \"#utility.yul\":2368:2433   */\n      swap1\n      pop\n        /* \"#utility.yul\":2313:2439   */\n      swap2\n      swap1\n      pop\n      jump\t// out\n        /* \"#utility.yul\":2445:2541   */\n    tag_69:\n        /* \"#utility.yul\":2482:2489   */\n      0x00\n        /* \"#utility.yul\":2511:2535   */\n      tag_96\n        /* \"#utility.yul\":2529:2534   */\n      dup3\n        /* \"#utility.yul\":2511:2535   */\n      tag_68\n      jump\t// in\n    tag_96:\n        /* \"#utility.yul\":2500:2535   */\n      swap1\n      pop\n        /* \"#utility.yul\":2445:2541   */\n      swap2\n      swap1\n      pop\n      jump\t// out\n        /* \"#utility.yul\":2547:2665   */\n    tag_70:\n        /* \"#utility.yul\":2634:2658   */\n      tag_98\n        /* \"#utility.yul\":2652:2657   */\n      dup2\n        /* \"#utility.yul\":2634:2658   */\n      tag_69\n      jump\t// in\n    tag_98:\n        /* \"#utility.yul\":2629:2632   */\n      dup3\n        /* \"#utility.yul\":2622:2659   */\n      mstore\n        /* \"#utility.yul\":2547:2665   */\n      pop\n      pop\n      jump\t// out\n        /* \"#utility.yul\":2671:2748   */\n    tag_71:\n        /* \"#utility.yul\":2708:2715   */\n      0x00\n        /* \"#utility.yul\":2737:2742   */\n      dup2\n        /* \"#utility.yul\":2726:2742   */\n      swap1\n      pop\n        /* \"#utility.yul\":2671:2748   */\n      swap2\n      swap1\n      pop\n      jump\t// out\n        /* \"#utility.yul\":2754:2872   */\n    tag_72:\n        /* \"#utility.yul\":2841:2865   */\n      tag_101\n        /* \"#utility.yul\":2859:2864   */\n      dup2\n        /* \"#utility.yul\":2841:2865   */\n      tag_71\n      jump\t// in\n    tag_101:\n        /* \"#utility.yul\":2836:2839   */\n      dup3\n        /* \"#utility.yul\":2829:2866   */\n      mstore\n        /* \"#utility.yul\":2754:2872   */\n      pop\n      pop\n      jump\t// out\n        /* \"#utility.yul\":2878:3210   */\n    tag_27:\n        /* \"#utility.yul\":2999:3003   */\n      0x00\n        /* \"#utility.yul\":3037:3039   */\n      0x40\n        /* \"#utility.yul\":3026:3035   */\n      dup3\n        /* \"#utility.yul\":3022:3040   */\n      add\n        /* \"#utility.yul\":3014:3040   */\n      swap1\n      pop\n        /* \"#utility.yul\":3050:3121   */\n      tag_103\n        /* \"#utility.yul\":3118:3119   */\n      0x00\n        /* \"#utility.yul\":3107:3116   */\n      dup4\n        /* \"#utility.yul\":3103:3120   */\n      add\n        /* \"#utility.yul\":3094:3100   */\n      dup6\n        /* \"#utility.yul\":3050:3121   */\n      tag_70\n      jump\t// in\n    tag_103:\n        /* \"#utility.yul\":3131:3203   */\n      tag_104\n        /* \"#utility.yul\":3199:3201   */\n      0x20\n        /* \"#utility.yul\":3188:3197   */\n      dup4\n        /* \"#utility.yul\":3184:3202   */\n      add\n        /* \"#utility.yul\":3175:3181   */\n      dup5\n        /* \"#utility.yul\":3131:3203   */\n      tag_72\n      jump\t// in\n    tag_104:\n        /* \"#utility.yul\":2878:3210   */\n      swap4\n      swap3\n      pop\n      pop\n      pop\n      jump\t// out\n        /* \"#utility.yul\":3216:3340   */\n    tag_73:\n        /* \"#utility.yul\":3308:3309   */\n      0x02\n        /* \"#utility.yul\":3301:3306   */\n      dup2\n        /* \"#utility.yul\":3298:3310   */\n      lt\n        /* \"#utility.yul\":3288:3334   */\n      tag_106\n      jumpi\n        /* \"#utility.yul\":3314:3332   */\n      tag_107\n      tag_11\n      jump\t// in\n    tag_107:\n        /* \"#utility.yul\":3288:3334   */\n    tag_106:\n        /* \"#utility.yul\":3216:3340   */\n      pop\n      jump\t// out\n        /* \"#utility.yul\":3346:3495   */\n    tag_74:\n        /* \"#utility.yul\":3402:3409   */\n      0x00\n        /* \"#utility.yul\":3431:3436   */\n      dup2\n        /* \"#utility.yul\":3420:3436   */\n      swap1\n      pop\n        /* \"#utility.yul\":3437:3489   */\n      tag_109\n        /* \"#utility.yul\":3483:3488   */\n      dup3\n        /* \"#utility.yul\":3437:3489   */\n      tag_73\n      jump\t// in\n    tag_109:\n        /* \"#utility.yul\":3346:3495   */\n      swap2\n      swap1\n      pop\n      jump\t// out\n        /* \"#utility.yul\":3501:3650   */\n    tag_75:\n        /* \"#utility.yul\":3568:3577   */\n      0x00\n        /* \"#utility.yul\":3601:3644   */\n      tag_111\n        /* \"#utility.yul\":3638:3643   */\n      dup3\n        /* \"#utility.yul\":3601:3644   */\n      tag_74\n      jump\t// in\n    tag_111:\n        /* \"#utility.yul\":3588:3644   */\n      swap1\n      pop\n        /* \"#utility.yul\":3501:3650   */\n      swap2\n      swap1\n      pop\n      jump\t// out\n        /* \"#utility.yul\":3656:3821   */\n    tag_76:\n        /* \"#utility.yul\":3760:3814   */\n      tag_113\n        /* \"#utility.yul\":3808:3813   */\n      dup2\n        /* \"#utility.yul\":3760:3814   */\n      tag_75\n      jump\t// in\n    tag_113:\n        /* \"#utility.yul\":3755:3758   */\n      dup3\n        /* \"#utility.yul\":3748:3815   */\n      mstore\n        /* \"#utility.yul\":3656:3821   */\n      pop\n      pop\n      jump\t// out\n        /* \"#utility.yul\":3827:4083   */\n    tag_32:\n        /* \"#utility.yul\":3937:3941   */\n      0x00\n        /* \"#utility.yul\":3975:3977   */\n      0x20\n        /* \"#utility.yul\":3964:3973   */\n      dup3\n        /* \"#utility.yul\":3960:3978   */\n      add\n        /* \"#utility.yul\":3952:3978   */\n      swap1\n      pop\n        /* \"#utility.yul\":3988:4076   */\n      tag_115\n        /* \"#utility.yul\":4073:4074   */\n      0x00\n        /* \"#utility.yul\":4062:4071   */\n      dup4\n        /* \"#utility.yul\":4058:4075   */\n      add\n        /* \"#utility.yul\":4049:4055   */\n      dup5\n        /* \"#utility.yul\":3988:4076   */\n      tag_76\n      jump\t// in\n    tag_115:\n        /* \"#utility.yul\":3827:4083   */\n      swap3\n      swap2\n      pop\n      pop\n      jump\t// out\n        /* \"#utility.yul\":4089:4193   */\n    tag_77:\n        /* \"#utility.yul\":4134:4141   */\n      0x00\n        /* \"#utility.yul\":4163:4187   */\n      tag_117\n        /* \"#utility.yul\":4181:4186   */\n      dup3\n        /* \"#utility.yul\":4163:4187   */\n      tag_68\n      jump\t// in\n    tag_117:\n        /* \"#utility.yul\":4152:4187   */\n      swap1\n      pop\n        /* \"#utility.yul\":4089:4193   */\n      swap2\n      swap1\n      pop\n      jump\t// out\n        /* \"#utility.yul\":4199:4341   */\n    tag_78:\n        /* \"#utility.yul\":4302:4334   */\n      tag_119\n        /* \"#utility.yul\":4328:4333   */\n      dup2\n        /* \"#utility.yul\":4302:4334   */\n      tag_77\n      jump\t// in\n    tag_119:\n        /* \"#utility.yul\":4297:4300   */\n      dup3\n        /* \"#utility.yul\":4290:4335   */\n      mstore\n        /* \"#utility.yul\":4199:4341   */\n      pop\n      pop\n      jump\t// out\n        /* \"#utility.yul\":4347:4601   */\n    tag_37:\n        /* \"#utility.yul\":4456:4460   */\n      0x00\n        /* \"#utility.yul\":4494:4496   */\n      0x20\n        /* \"#utility.yul\":4483:4492   */\n      dup3\n        /* \"#utility.yul\":4479:4497   */\n      add\n        /* \"#utility.yul\":4471:4497   */\n      swap1\n      pop\n        /* \"#utility.yul\":4507:4594   */\n      tag_121\n        /* \"#utility.yul\":4591:4592   */\n      0x00\n        /* \"#utility.yul\":4580:4589   */\n      dup4\n        /* \"#utility.yul\":4576:4593   */\n      add\n        /* \"#utility.yul\":4567:4573   */\n      dup5\n        /* \"#utility.yul\":4507:4594   */\n      tag_78\n      jump\t// in\n    tag_121:\n        /* \"#utility.yul\":4347:4601   */\n      swap3\n      swap2\n      pop\n      pop\n      jump\t// out\n\n    auxdata: 0xa2646970667358221220a0a4d5f5929d8883e26cd098af885f050e47af3c138d99beaa54415e3cfb41a364736f6c63430008150033\n}\n",
				"bytecode": {
					"linkReferences": {},
					"object": "608060405234801561000f575f80fd5b50335f806101000a81548173ffffffffffffffffffffffffffffffffffffffff021916908373ffffffffffffffffffffffffffffffffffffffff1602179055505f8060146101000a81548160ff021916908360018111156100735761007261007d565b5b02179055506100aa565b7f4e487b71000000000000000000000000000000000000000000000000000000005f52602160045260245ffd5b61068c806100b75f395ff3fe608060405260043610610042575f3560e01c80631cb5786f146101d357806377a612bd146101fd578063994cc5a814610227578063cc6dcacd14610231576101cf565b366101cf575f600181111561005a57610059610433565b5b5f60149054906101000a900460ff16600181111561007b5761007a610433565b5b146100bb576040517f08c379a00000000000000000000000000000000000000000000000000000000081526004016100b2906104ba565b60405180910390fd5b671bc16d674ec8000080341015610107576040517f08c379a00000000000000000000000000000000000000000000000000000000081526004016100fe90610522565b60405180910390fd5b5f8054906101000a900473ffffffffffffffffffffffffffffffffffffffff1673ffffffffffffffffffffffffffffffffffffffff166108fc3490811502906040515f60405180830381858888f19350505050158015610169573d5f803e3d5ffd5b5060015f60146101000a81548160ff0219169083600181111561018f5761018e610433565b5b02179055507f3d8a7aeb1f864aa7aa43662c762d6605a609ee7bf74c2490bd22d20353de965233346040516101c5929190610597565b60405180910390a1005b5f80fd5b3480156101de575f80fd5b506101e7610247565b6040516101f49190610604565b60405180910390f35b348015610208575f80fd5b5061021161025c565b60405161021e919061063d565b60405180910390f35b61022f61027f565b005b34801561023c575f80fd5b50610245610408565b005b5f8060149054906101000a900460ff16905090565b5f8054906101000a900473ffffffffffffffffffffffffffffffffffffffff1681565b5f600181111561029257610291610433565b5b5f60149054906101000a900460ff1660018111156102b3576102b2610433565b5b146102f3576040517f08c379a00000000000000000000000000000000000000000000000000000000081526004016102ea906104ba565b60405180910390fd5b671bc16d674ec800008034101561033f576040517f08c379a000000000000000000000000000000000000000000000000000000000815260040161033690610522565b60405180910390fd5b5f8054906101000a900473ffffffffffffffffffffffffffffffffffffffff1673ffffffffffffffffffffffffffffffffffffffff166108fc3490811502906040515f60405180830381858888f193505050501580156103a1573d5f803e3d5ffd5b5060015f60146101000a81548160ff021916908360018111156103c7576103c6610433565b5b02179055507f3d8a7aeb1f864aa7aa43662c762d6605a609ee7bf74c2490bd22d20353de965233346040516103fd929190610597565b60405180910390a150565b5f8060146101000a81548160ff0219169083600181111561042c5761042b610433565b5b0217905550565b7f4e487b71000000000000000000000000000000000000000000000000000000005f52602160045260245ffd5b5f82825260208201905092915050565b7f7468652063617220697320616c72656164792072656e746564000000000000005f82015250565b5f6104a4601983610460565b91506104af82610470565b602082019050919050565b5f6020820190508181035f8301526104d181610498565b9050919050565b7f6e6f7420656e6f756768204554480000000000000000000000000000000000005f82015250565b5f61050c600e83610460565b9150610517826104d8565b602082019050919050565b5f6020820190508181035f83015261053981610500565b9050919050565b5f73ffffffffffffffffffffffffffffffffffffffff82169050919050565b5f61056982610540565b9050919050565b6105798161055f565b82525050565b5f819050919050565b6105918161057f565b82525050565b5f6040820190506105aa5f830185610570565b6105b76020830184610588565b9392505050565b600281106105cf576105ce610433565b5b50565b5f8190506105df826105be565b919050565b5f6105ee826105d2565b9050919050565b6105fe816105e4565b82525050565b5f6020820190506106175f8301846105f5565b92915050565b5f61062782610540565b9050919050565b6106378161061d565b82525050565b5f6020820190506106505f83018461062e565b9291505056fea2646970667358221220a0a4d5f5929d8883e26cd098af885f050e47af3c138d99beaa54415e3cfb41a364736f6c63430008150033",
					"opcodes": "PUSH1 0x80 PUSH1 0x40 MSTORE CALLVALUE DUP1 ISZERO PUSH2 0xF JUMPI PUSH0 DUP1 REVERT JUMPDEST POP CALLER PUSH0 DUP1 PUSH2 0x100 EXP DUP2 SLOAD DUP2 PUSH20 0xFFFFFFFFFFFFFFFFFFFFFFFFFFFFFFFFFFFFFFFF MUL NOT AND SWAP1 DUP4 PUSH20 0xFFFFFFFFFFFFFFFFFFFFFFFFFFFFFFFFFFFFFFFF AND MUL OR SWAP1 SSTORE POP PUSH0 DUP1 PUSH1 0x14 PUSH2 0x100 EXP DUP2 SLOAD DUP2 PUSH1 0xFF MUL NOT AND SWAP1 DUP4 PUSH1 0x1 DUP2 GT ISZERO PUSH2 0x73 JUMPI PUSH2 0x72 PUSH2 0x7D JUMP JUMPDEST JUMPDEST MUL OR SWAP1 SSTORE POP PUSH2 0xAA JUMP JUMPDEST PUSH32 0x4E487B7100000000000000000000000000000000000000000000000000000000 PUSH0 MSTORE PUSH1 0x21 PUSH1 0x4 MSTORE PUSH1 0x24 PUSH0 REVERT JUMPDEST PUSH2 0x68C DUP1 PUSH2 0xB7 PUSH0 CODECOPY PUSH0 RETURN INVALID PUSH1 0x80 PUSH1 0x40 MSTORE PUSH1 0x4 CALLDATASIZE LT PUSH2 0x42 JUMPI PUSH0 CALLDATALOAD PUSH1 0xE0 SHR DUP1 PUSH4 0x1CB5786F EQ PUSH2 0x1D3 JUMPI DUP1 PUSH4 0x77A612BD EQ PUSH2 0x1FD JUMPI DUP1 PUSH4 0x994CC5A8 EQ PUSH2 0x227 JUMPI DUP1 PUSH4 0xCC6DCACD EQ PUSH2 0x231 JUMPI PUSH2 0x1CF JUMP JUMPDEST CALLDATASIZE PUSH2 0x1CF JUMPI PUSH0 PUSH1 0x1 DUP2 GT ISZERO PUSH2 0x5A JUMPI PUSH2 0x59 PUSH2 0x433 JUMP JUMPDEST JUMPDEST PUSH0 PUSH1 0x14 SWAP1 SLOAD SWAP1 PUSH2 0x100 EXP SWAP1 DIV PUSH1 0xFF AND PUSH1 0x1 DUP2 GT ISZERO PUSH2 0x7B JUMPI PUSH2 0x7A PUSH2 0x433 JUMP JUMPDEST JUMPDEST EQ PUSH2 0xBB JUMPI PUSH1 0x40 MLOAD PUSH32 0x8C379A000000000000000000000000000000000000000000000000000000000 DUP2 MSTORE PUSH1 0x4 ADD PUSH2 0xB2 SWAP1 PUSH2 0x4BA JUMP JUMPDEST PUSH1 0x40 MLOAD DUP1 SWAP2 SUB SWAP1 REVERT JUMPDEST PUSH8 0x1BC16D674EC80000 DUP1 CALLVALUE LT ISZERO PUSH2 0x107 JUMPI PUSH1 0x40 MLOAD PUSH32 0x8C379A000000000000000000000000000000000000000000000000000000000 DUP2 MSTORE PUSH1 0x4 ADD PUSH2 0xFE SWAP1 PUSH2 0x522 JUMP JUMPDEST PUSH1 0x40 MLOAD DUP1 SWAP2 SUB SWAP1 REVERT JUMPDEST PUSH0 DUP1 SLOAD SWAP1 PUSH2 0x100 EXP SWAP1 DIV PUSH20 0xFFFFFFFFFFFFFFFFFFFFFFFFFFFFFFFFFFFFFFFF AND PUSH20 0xFFFFFFFFFFFFFFFFFFFFFFFFFFFFFFFFFFFFFFFF AND PUSH2 0x8FC CALLVALUE SWAP1 DUP2 ISZERO MUL SWAP1 PUSH1 0x40 MLOAD PUSH0 PUSH1 0x40 MLOAD DUP1 DUP4 SUB DUP2 DUP6 DUP9 DUP9 CALL SWAP4 POP POP POP POP ISZERO DUP1 ISZERO PUSH2 0x169 JUMPI RETURNDATASIZE PUSH0 DUP1 RETURNDATACOPY RETURNDATASIZE PUSH0 REVERT JUMPDEST POP PUSH1 0x1 PUSH0 PUSH1 0x14 PUSH2 0x100 EXP DUP2 SLOAD DUP2 PUSH1 0xFF MUL NOT AND SWAP1 DUP4 PUSH1 0x1 DUP2 GT ISZERO PUSH2 0x18F JUMPI PUSH2 0x18E PUSH2 0x433 JUMP JUMPDEST JUMPDEST MUL OR SWAP1 SSTORE POP PUSH32 0x3D8A7AEB1F864AA7AA43662C762D6605A609EE7BF74C2490BD22D20353DE9652 CALLER CALLVALUE PUSH1 0x40 MLOAD PUSH2 0x1C5 SWAP3 SWAP2 SWAP1 PUSH2 0x597 JUMP JUMPDEST PUSH1 0x40 MLOAD DUP1 SWAP2 SUB SWAP1 LOG1 STOP JUMPDEST PUSH0 DUP1 REVERT JUMPDEST CALLVALUE DUP1 ISZERO PUSH2 0x1DE JUMPI PUSH0 DUP1 REVERT JUMPDEST POP PUSH2 0x1E7 PUSH2 0x247 JUMP JUMPDEST PUSH1 0x40 MLOAD PUSH2 0x1F4 SWAP2 SWAP1 PUSH2 0x604 JUMP JUMPDEST PUSH1 0x40 MLOAD DUP1 SWAP2 SUB SWAP1 RETURN JUMPDEST CALLVALUE DUP1 ISZERO PUSH2 0x208 JUMPI PUSH0 DUP1 REVERT JUMPDEST POP PUSH2 0x211 PUSH2 0x25C JUMP JUMPDEST PUSH1 0x40 MLOAD PUSH2 0x21E SWAP2 SWAP1 PUSH2 0x63D JUMP JUMPDEST PUSH1 0x40 MLOAD DUP1 SWAP2 SUB SWAP1 RETURN JUMPDEST PUSH2 0x22F PUSH2 0x27F JUMP JUMPDEST STOP JUMPDEST CALLVALUE DUP1 ISZERO PUSH2 0x23C JUMPI PUSH0 DUP1 REVERT JUMPDEST POP PUSH2 0x245 PUSH2 0x408 JUMP JUMPDEST STOP JUMPDEST PUSH0 DUP1 PUSH1 0x14 SWAP1 SLOAD SWAP1 PUSH2 0x100 EXP SWAP1 DIV PUSH1 0xFF AND SWAP1 POP SWAP1 JUMP JUMPDEST PUSH0 DUP1 SLOAD SWAP1 PUSH2 0x100 EXP SWAP1 DIV PUSH20 0xFFFFFFFFFFFFFFFFFFFFFFFFFFFFFFFFFFFFFFFF AND DUP2 JUMP JUMPDEST PUSH0 PUSH1 0x1 DUP2 GT ISZERO PUSH2 0x292 JUMPI PUSH2 0x291 PUSH2 0x433 JUMP JUMPDEST JUMPDEST PUSH0 PUSH1 0x14 SWAP1 SLOAD SWAP1 PUSH2 0x100 EXP SWAP1 DIV PUSH1 0xFF AND PUSH1 0x1 DUP2 GT ISZERO PUSH2 0x2B3 JUMPI PUSH2 0x2B2 PUSH2 0x433 JUMP JUMPDEST JUMPDEST EQ PUSH2 0x2F3 JUMPI PUSH1 0x40 MLOAD PUSH32 0x8C379A000000000000000000000000000000000000000000000000000000000 DUP2 MSTORE PUSH1 0x4 ADD PUSH2 0x2EA SWAP1 PUSH2 0x4BA JUMP JUMPDEST PUSH1 0x40 MLOAD DUP1 SWAP2 SUB SWAP1 REVERT JUMPDEST PUSH8 0x1BC16D674EC80000 DUP1 CALLVALUE LT ISZERO PUSH2 0x33F JUMPI PUSH1 0x40 MLOAD PUSH32 0x8C379A000000000000000000000000000000000000000000000000000000000 DUP2 MSTORE PUSH1 0x4 ADD PUSH2 0x336 SWAP1 PUSH2 0x522 JUMP JUMPDEST PUSH1 0x40 MLOAD DUP1 SWAP2 SUB SWAP1 REVERT JUMPDEST PUSH0 DUP1 SLOAD SWAP1 PUSH2 0x100 EXP SWAP1 DIV PUSH20 0xFFFFFFFFFFFFFFFFFFFFFFFFFFFFFFFFFFFFFFFF AND PUSH20 0xFFFFFFFFFFFFFFFFFFFFFFFFFFFFFFFFFFFFFFFF AND PUSH2 0x8FC CALLVALUE SWAP1 DUP2 ISZERO MUL SWAP1 PUSH1 0x40 MLOAD PUSH0 PUSH1 0x40 MLOAD DUP1 DUP4 SUB DUP2 DUP6 DUP9 DUP9 CALL SWAP4 POP POP POP POP ISZERO DUP1 ISZERO PUSH2 0x3A1 JUMPI RETURNDATASIZE PUSH0 DUP1 RETURNDATACOPY RETURNDATASIZE PUSH0 REVERT JUMPDEST POP PUSH1 0x1 PUSH0 PUSH1 0x14 PUSH2 0x100 EXP DUP2 SLOAD DUP2 PUSH1 0xFF MUL NOT AND SWAP1 DUP4 PUSH1 0x1 DUP2 GT ISZERO PUSH2 0x3C7 JUMPI PUSH2 0x3C6 PUSH2 0x433 JUMP JUMPDEST JUMPDEST MUL OR SWAP1 SSTORE POP PUSH32 0x3D8A7AEB1F864AA7AA43662C762D6605A609EE7BF74C2490BD22D20353DE9652 CALLER CALLVALUE PUSH1 0x40 MLOAD PUSH2 0x3FD SWAP3 SWAP2 SWAP1 PUSH2 0x597 JUMP JUMPDEST PUSH1 0x40 MLOAD DUP1 SWAP2 SUB SWAP1 LOG1 POP JUMP JUMPDEST PUSH0 DUP1 PUSH1 0x14 PUSH2 0x100 EXP DUP2 SLOAD DUP2 PUSH1 0xFF MUL NOT AND SWAP1 DUP4 PUSH1 0x1 DUP2 GT ISZERO PUSH2 0x42C JUMPI PUSH2 0x42B PUSH2 0x433 JUMP JUMPDEST JUMPDEST MUL OR SWAP1 SSTORE POP JUMP JUMPDEST PUSH32 0x4E487B7100000000000000000000000000000000000000000000000000000000 PUSH0 MSTORE PUSH1 0x21 PUSH1 0x4 MSTORE PUSH1 0x24 PUSH0 REVERT JUMPDEST PUSH0 DUP3 DUP3 MSTORE PUSH1 0x20 DUP3 ADD SWAP1 POP SWAP3 SWAP2 POP POP JUMP JUMPDEST PUSH32 0x7468652063617220697320616C72656164792072656E74656400000000000000 PUSH0 DUP3 ADD MSTORE POP JUMP JUMPDEST PUSH0 PUSH2 0x4A4 PUSH1 0x19 DUP4 PUSH2 0x460 JUMP JUMPDEST SWAP2 POP PUSH2 0x4AF DUP3 PUSH2 0x470 JUMP JUMPDEST PUSH1 0x20 DUP3 ADD SWAP1 POP SWAP2 SWAP1 POP JUMP JUMPDEST PUSH0 PUSH1 0x20 DUP3 ADD SWAP1 POP DUP2 DUP2 SUB PUSH0 DUP4 ADD MSTORE PUSH2 0x4D1 DUP2 PUSH2 0x498 JUMP JUMPDEST SWAP1 POP SWAP2 SWAP1 POP JUMP JUMPDEST PUSH32 0x6E6F7420656E6F75676820455448000000000000000000000000000000000000 PUSH0 DUP3 ADD MSTORE POP JUMP JUMPDEST PUSH0 PUSH2 0x50C PUSH1 0xE DUP4 PUSH2 0x460 JUMP JUMPDEST SWAP2 POP PUSH2 0x517 DUP3 PUSH2 0x4D8 JUMP JUMPDEST PUSH1 0x20 DUP3 ADD SWAP1 POP SWAP2 SWAP1 POP JUMP JUMPDEST PUSH0 PUSH1 0x20 DUP3 ADD SWAP1 POP DUP2 DUP2 SUB PUSH0 DUP4 ADD MSTORE PUSH2 0x539 DUP2 PUSH2 0x500 JUMP JUMPDEST SWAP1 POP SWAP2 SWAP1 POP JUMP JUMPDEST PUSH0 PUSH20 0xFFFFFFFFFFFFFFFFFFFFFFFFFFFFFFFFFFFFFFFF DUP3 AND SWAP1 POP SWAP2 SWAP1 POP JUMP JUMPDEST PUSH0 PUSH2 0x569 DUP3 PUSH2 0x540 JUMP JUMPDEST SWAP1 POP SWAP2 SWAP1 POP JUMP JUMPDEST PUSH2 0x579 DUP2 PUSH2 0x55F JUMP JUMPDEST DUP3 MSTORE POP POP JUMP JUMPDEST PUSH0 DUP2 SWAP1 POP SWAP2 SWAP1 POP JUMP JUMPDEST PUSH2 0x591 DUP2 PUSH2 0x57F JUMP JUMPDEST DUP3 MSTORE POP POP JUMP JUMPDEST PUSH0 PUSH1 0x40 DUP3 ADD SWAP1 POP PUSH2 0x5AA PUSH0 DUP4 ADD DUP6 PUSH2 0x570 JUMP JUMPDEST PUSH2 0x5B7 PUSH1 0x20 DUP4 ADD DUP5 PUSH2 0x588 JUMP JUMPDEST SWAP4 SWAP3 POP POP POP JUMP JUMPDEST PUSH1 0x2 DUP2 LT PUSH2 0x5CF JUMPI PUSH2 0x5CE PUSH2 0x433 JUMP JUMPDEST JUMPDEST POP JUMP JUMPDEST PUSH0 DUP2 SWAP1 POP PUSH2 0x5DF DUP3 PUSH2 0x5BE JUMP JUMPDEST SWAP2 SWAP1 POP JUMP JUMPDEST PUSH0 PUSH2 0x5EE DUP3 PUSH2 0x5D2 JUMP JUMPDEST SWAP1 POP SWAP2 SWAP1 POP JUMP JUMPDEST PUSH2 0x5FE DUP2 PUSH2 0x5E4 JUMP JUMPDEST DUP3 MSTORE POP POP JUMP JUMPDEST PUSH0 PUSH1 0x20 DUP3 ADD SWAP1 POP PUSH2 0x617 PUSH0 DUP4 ADD DUP5 PUSH2 0x5F5 JUMP JUMPDEST SWAP3 SWAP2 POP POP JUMP JUMPDEST PUSH0 PUSH2 0x627 DUP3 PUSH2 0x540 JUMP JUMPDEST SWAP1 POP SWAP2 SWAP1 POP JUMP JUMPDEST PUSH2 0x637 DUP2 PUSH2 0x61D JUMP JUMPDEST DUP3 MSTORE POP POP JUMP JUMPDEST PUSH0 PUSH1 0x20 DUP3 ADD SWAP1 POP PUSH2 0x650 PUSH0 DUP4 ADD DUP5 PUSH2 0x62E JUMP JUMPDEST SWAP3 SWAP2 POP POP JUMP INVALID LOG2 PUSH5 0x6970667358 0x22 SLT KECCAK256 LOG0 LOG4 0xD5 CREATE2 SWAP3 SWAP14 DUP9 DUP4 0xE2 PUSH13 0xD098AF885F050E47AF3C138D99 0xBE 0xAA SLOAD COINBASE 0x5E EXTCODECOPY 0xFB COINBASE LOG3 PUSH5 0x736F6C6343 STOP ADDMOD ISZERO STOP CALLER "
				},
				"gasEstimates": {
					"creation": {
						"codeDepositCost": "335200",
						"executionCost": "48985",
						"totalCost": "384185"
					},
					"external": {
						"carowner()": "2505",
						"getcondition()": "2590",
						"rentcar()": "infinite",
						"returncar()": "24523"
					}
				},
				"methodIdentifiers": {
					"carowner()": "77a612bd",
					"getcondition()": "1cb5786f",
					"rentcar()": "994cc5a8",
					"returncar()": "cc6dcacd"
				}
			},
			"storageLayout": {
				"storage": [
					{
						"astId": 3,
						"contract": "contract/carrent.sol:carrent",
						"label": "carowner",
						"offset": 0,
						"slot": "0",
						"type": "t_address_payable"
					},
					{
						"astId": 9,
						"contract": "contract/carrent.sol:carrent",
						"label": "car",
						"offset": 20,
						"slot": "0",
						"type": "t_enum(carrentconditions)6"
					}
				],
				"types": {
					"t_address_payable": {
						"encoding": "inplace",
						"label": "address payable",
						"numberOfBytes": "20"
					},
					"t_enum(carrentconditions)6": {
						"encoding": "inplace",
						"label": "enum carrent.carrentconditions",
						"numberOfBytes": "1"
					}
				}
			},
			"userdoc": {
				"kind": "user",
				"methods": {},
				"version": 1
			}
		}
	}
}